:100000006FC5FAC3189518951895189518954FC48B
:100010001895189518951895189518951895189578
:1000200018950C949D0407C31EC318951895189530
:10003000189518957900BB00450289026E03E50307
:100040006303F8049B0056020000360020024C0EA9
:10005000A400B80100E040E0542F550F550B4217A3
:10006000530750F4542F550F550BFB01E40FF51FA8
:100070001081010F4395F0CF0895A89508957894C5
:10008000089500935D020895089571D52C9731D499
:10009000F6DF24EF31E08E010A5F1F4F97D42AE08C
:1000A00030E08E0193D422ED32E002EC12E021D355
:1000B0006DD0F6D100E0E5DF80E090E0A0E0B0E0B8
:1000C00024D194D1082F005049F00A9551F00A9597
:1000D00041F0035029F00A9521F003C081E001C0EE
:1000E000D3DFCBDFEDCF24E330E0F801218332838F
:1000F00008953FD5C801082F092B21F020FB16F4E5
:100100008C0100D5E2E044C5980103E0273110E0FE
:10011000310710F402E008952F3810E0310710F491
:1001200001E00895213A10E0310728F02A3212E068
:10013000310708F400E008951CD5C80122E030E042
:100140008C01D7DFE2E024C56FE172E048E150E0C6
:1001500023E030E00EE512E0BBD500E212E082D4ED
:1001600008956CE272E048E150E023E030E00EE5F3
:1001700012E0F5D50895FDD4C801082F092B21F010
:1001800020FB16F48C01BED4E2E002C529D301E0C5
:10019000009359020895EAE5F2E000E0008300E0F0
:1001A0000183C4D208956ED10895DFD4D801290106
:1001B000CA018C01D7D2E6E0E7C4DBD480E090E04E
:1001C000FC01E855FD4F00E00083839590E0FC01C1
:1001D000E855FD4F02E40083839590E0FC01E8556B
:1001E000FD4F02E40083839520E02831F4F530E0F0
:1001F0003830CCF52831CCF590E0FC01E855FD4FC6
:10020000008110E0432F93D4202E022F102F110FC6
:10021000110B000F111FF801EA5DFD4F008110E086
:1002200048E150E075D46EE572E0600F711F022F57
:10023000102F110F110B000F111FF801EA5DFD4F78
:10024000018110E043E050E063D4600F711FFB01B7
:1002500000810370202A90E0FC01E855FD4F2082C8
:1002600023953E5FC5CF8395C0CF282F30E0225025
:1002700030400AEA12E0EDDE90E0FC01E855FD4F67
:100280000083E2E085C4B8018A0142E9F901E00F88
:10029000F11F51E950830F5F1F4FF901E00FF11F6C
:1002A00051E050830F5F1F4FF901E00FF11F4083B2
:1002B0000F5F1F4F089559D42801D901CA014AE0A0
:1002C00050E028EA32E08D016CD48C01E6E05CC499
:1002D0004AD4D80129013A01C3010C91015891F087
:1002E0000A9581F00F5019F0015B39F00BC0AC0199
:1002F00092018D01C8DFC80105C0AC0192018D01DA
:10030000DADFC8018C01E8E03DC433D40091590222
:10031000005041F00A9539F00A9551F0075009F460
:1003200053C052C051C037DF02E0009359024CC0A5
:100330003ADF002309F448C040E450E0EAE5F2E087
:1003400000811181401B510BEAE5F2E0008111812F
:10035000E8EBF2E020813181200F311FEAE5F2E085
:1003600060817181E6EBF2E000811181060F171FB9
:100370001CDFC801813000E09007FCF0EAE5F2E004
:1003800000811181080F191F00831183EAE5F2E053
:1003900040815181E8EBF2E020813181E6EBF2E02F
:1003A0000081118195DF012B21F009E000935902B2
:1003B0000BC000E00093590207C08F3F0FEF90077A
:1003C00019F400E000935902E2E0E2C300915C02FC
:1003D000083050F400915C02102F139510935C02CA
:1003E0006CD07BD000E0089501E0089500915D029B
:1003F000005021F10A9519F0095039F008957ED086
:1004000000E000935C02E2DF08952ED00023B1F0FB
:1004100034D010E079DE202F00915C0210E043E040
:1004200050E076D3F801E25AFD4F20ABCFDF002336
:1004300029F059D0C2DE00E000935D02089599D3FF
:10044000C80163E770E043E050E028E030E08C0151
:100450003FD48C01E2E09CC36CE970E043E050E0E3
:1004600028E030E07CD4089500917A00102F14FF2A
:1004700002C001E0089500E0089510917900009114
:10048000780008950091BE02089573D3C801082F23
:10049000092B21F020FB16F48C0134D3E2E078C361
:1004A0000FE300937E0007E000937A0000E00093E2
:1004B0007B0000EC00937C000895102F1F701095B6
:1004C00020917C00212320937C00102F1F7020910D
:1004D0007C00212B20937C00089500917A00006C11
:1004E00000937A00089500917A00077300937A00D0
:1004F000009164000160009364000895009164001D
:100500000E7F0093640000917A00006800937A00E7
:1005100008952FD3C801082F092B21F020FB16F4D2
:100520008C01F0D2E2E034C322D3F801418901E02A
:1005300010E0F8D20095A785B0891C9110231C9378
:10054000E4E024C314D3F80124893589232B99F4DA
:10055000F801A681B7812C912F7D2C93F801A481FD
:10056000B5812C9120642C93F801A681B7812C9140
:1005700020642C9315C0F801A289B3899D012F5FD7
:100580003F4FF801228B338B2C91F801A285B38564
:100590002C93F8012489358921503040248B358BE8
:1005A000E4E0F4C2E4D2D8011696ED91FC911797DD
:1005B0000081077B0083FD0104851585012B11F067
:1005C0008D01B2DF1496ED91FC91159700810068C2
:1005D00000831696ED91FC911797008100690083C6
:1005E000FD0101E0038FE4E0D1C2C1D2F801208D0A
:1005F000318D203041E0340738F0F80121E0248FBC
:10060000F80121E0228F15C0F801208D318DC9013C
:100610000196F801808F918FF801A285B3854C91E6
:10062000F801A689B789A20FB31F4C93F80121E006
:10063000228FE4E0ABC2FA93EA930A924A933A9388
:100640002A931A930A934FB70091E4021091E5029E
:1006500079DF4FBF099119912991399149910990F9
:10066000E991F9911895FA93EA930A924A932A9399
:100670001A930A932FB70091E4021091E50292DFDA
:100680002FBF09911991299149910990E991F99107
:100690001895FA93EA930A925A934A933A932A93B3
:1006A0001A930A935FB70091E4021091E5029DDF6F
:1006B0005FBF0991199129913991499159910990F7
:1006C000E991F991189555D2C801082F092B21F00D
:1006D00020FB16F48C0116D2E2E05AC24AD2C801BD
:1006E000082F092B21F020FB16F48C010BD2E2E03D
:1006F0004FC2E6EBF2E000831183E8EBF2E02083E7
:100700003183089504B1026104B929980CB5026CD3
:100710000CBD00E00EBD089505B1077C05B904B11C
:10072000077C04B90CB50F730CBD0895EAEBF2E039
:1007300000E0008300E00183ECEBF2E000E00083E6
:1007400000E0018300E00093BE0200E00093BF02DE
:1007500000E00093C00200E00093C10200E00093BB
:10076000B5020895980100E00093BE020091C10215
:10077000002319F00FEF1FEF0895EAEBF2E000817C
:1007800011810217130718F00FEF1FEF0895EAEB1E
:10079000F2E000811181012B61F0EAEBF2E00081CF
:1007A0001181EAEBF2E010E0108310E0118310E019
:1007B0000895EAEBF2E000811181012B19F400E0C9
:1007C00010E0089500E010E00895D3D1C801082F8B
:1007D000092B21F020FB16F48C0194D1E2E0D8C162
:1007E000009169000C7F009369000091690003602B
:1007F00000936900E89A08958A93FA93EA933A92EB
:100800002A921A920A927A936A935A934A933A9343
:100810002A931A930A938FB74A9914C001E0009360
:10082000EA026BD079DF009169000C7F00936900C8
:100830000091690003600093690067D000E07AD0FE
:1008400077D011C05ED05EDF009169000C7F00930D
:1008500069000091690002600093690001E06AD0BC
:1008600001E00FDC63D08FBF099119912991399173
:1008700049915991699179910990199029903990EC
:10088000E991F9918991189508E30093B3000091DB
:10089000B00002600093B0000091B10005600093C9
:1008A000B1000091700002600093700008958A9377
:1008B000FA93EA933A922A921A920A927A936A9354
:1008C0005A934A933A932A931A930A938FB721D053
:1008D0008FBF099119912991399149915991699144
:1008E00079910990199029903990E991F99189911C
:1008F0001895CADF17D018D0089500E00093BF0202
:10090000089501E00093BF02089501E00093C00242
:100910000895E2EEF2E0008111810F5F1F4F008326
:1009200011830895539A0895539A08955B980895F2
:100930005B9A08950093590208950F930091B502B0
:100940000EBD0F91FA93EA934A933A932A931A931E
:100950000A934FB70EB52091BA023091BB02E091D5
:10096000B602F091B702E20FF31F00830091BA02C2
:100970001091BB02E091B802F091B902E00FF11FB3
:1009800001810093B5020091BA021091BB020034BC
:1009900020E0120760F4EAEBF2E0008111810F5FC2
:1009A0001F4F0083118301E00093BE0206C001E0E7
:1009B0000093C10201E00093BE024FBF099119915B
:1009C000299139914991E991F9911895D0D0D8019F
:1009D000C90102E410E0FD010483158314D0FD0178
:1009E000028313838D939C9311978D01E4E0CEC015
:1009F000C0D0C801082F092B21F020FB16F48C0170
:100A000081D0E2E0C5C0E2EEF2E0008111810895FC
:100A1000802F912F41D0082F192FA7C101E010E09E
:100A2000A4C1A1D02801390182E092E0D20109C01D
:100A30001296823029F4FD010591F491E02F099579
:100A40001296A615B70549F0FD0125913491203085
:100A5000304071F3823079F7F3CF8A959A9531F768
:100A6000E8E090C084D0D801ED91FC91119700810D
:100A70001181012B21F42FD0A017B10709F4CEDF8B
:100A80002AD0ED91FC91119700831183EBEEF2E0F7
:100A9000A083B183E4E07AC06AD001C009951BD07D
:100AA000012BC1F00081E091EB02F12FA081B18117
:100AB0002D913C91EBEEF2E020833183D801149626
:100AC000ED91FC91D80112960D911C91202F212BB4
:100AD00029F7E4CFDFCFEBEEF2E00081118108953A
:100AE0000FE10DBF02E00EBFC0E0D2E058D00023FE
:100AF00009F071D000E510E022E530E092DFC5DAC0
:100B000006D086CF202F212B09F030D1089580CF39
:100B1000149F102D059F100D049F002D110D089599
:100B2000000F111F4A95E2F70895159507954A950C
:100B3000E2F7089500241124E0E1001F111FEA9557
:100B400042F0001C111C04161506B8F3041A150A0D
:100B5000F4CFA001009510950895DA92CA92BA9246
:100B6000AA929A928A927A926A925A924A92BA93E4
:100B7000AA939A938A930895DD84CC84BB84AA8433
:100B8000998488847F806E805D804C80BB81AA813F
:100B900099818881F0E0EC0FFD1FEF01089501E0DD
:100BA0000895E5DFD80106C0F90161919F016D93B9
:100BB00041505040642F652BB9F7E4E0E7CF20E0C7
:100BC0002D9301501040E1F7089525912D93015088
:100BD0001040D9F7089584E490E0FC010591149148
:100BE000FC013296A591B491FC0134962591349183
:100BF000422F432B19F0F901E8DF01C0E0DF069630
:100C000010E08035910748F3089504501040672B99
:100C100011F02C5F3F4FFA010994ABDFF801890115
:100C2000349780819181428153814095509570DF46
:100C30008017910709F0F2DE8C01E2E0A9CF8DDF89
:100C4000D80169015A01CB010B2B21F0088D198DB8
:100C5000012BE1F089015CDF28010A2F0B2B69F4DD
:100C6000042D0C5F1F4FEA89FB890995D801012BE0
:100C700009F014960A2F0B2B29F1FD0134974082BD
:100C80005182860100951095028313838E849F8480
:100C900000E080169006B1F0442455243D010AC0BE
:100CA0009C0113D08A0D9B1D01E0400E00E0501EF8
:100CB0006A0C7B1C4C145D0428F4082F092B81F767
:100CC00004D0F2CF8D01EAE157CF8301F4010994FA
:100CD000E0E008D007D001D0B2CF7A936A9360E009
:100CE00070E008953FD0EA93089537DF5801C901B5
:100CF0003A016B0144245524012B79F12F3F3F4FDA
:100D000039F49A010A2D89DF2801A30113DFC801F4
:100D100000E0C016D006B1F0A0E0B0E08C010150B8
:100D20001040A301F5DE450108C08401F6010995D4
:100D300011968301119501951040800E911EA81700
:100D4000B90798F34E855F8500E04030500729F0E1
:100D5000688979899201850158DFE2E10DCF01D0E0
:100D6000C4CFE0E000D0EA93BECFFFCF00DF202F5A
:100D7000212B09F464C002501040F80140815181D8
:100D8000443020E0520708F45AC02DEE32E0D90179
:100D90001296ED91FC916E2F6F2B19F00E171F0715
:100DA00038F4D8011296ED93FC93F90124C0FB01AD
:100DB00048D019F060177107D0F300801180BF018F
:100DC000600D711D06171707D0F16017710739F410
:100DD0008001040F151F008311838F010EC031D0D5
:100DE00031F00801040E151E6015710540F1D8019F
:100DF00012966D937C9302831383F801A281B381D1
:100E00004A2F4B2BE1F040815181B801640F751FCF
:100E10006A177B07A1F4F90120E020832183FD01FB
:100E200020813181F80140815181420F531F40835D
:100E30005183FD0122813381F80122833383E4E071
:100E4000A5CE62817381062E072A0895A6020000AE
:100E5000B1000006000700000001000200030004CA
:100E6000000501060107010001010102010301045F
:100E70000105020602070200020102020203020447
:020E8000020569
:000AE00115
:00000001FF
