:1000000011C749C6189518951895189518959CC646
:100010001895189518951895189518951895189578
:1000200018950C94C806BBC5CAC51895189518959F
:10003000189518950000000000003101B40100007F
:10004000300084013A0F6FEF7FEF02C02150304043
:10005000422F432BA1F0F80141918F01642748E022
:1000600001C04A95442391F30B011694079460FB59
:10007000B001BEF751E0652750EA7527F2CF8B013A
:10008000012F10E0762F1727089560E040E009C0A7
:10009000542F550F550BF801E40FF51F5081650FD4
:1000A0004395542F550F550B4217530788F3062FCE
:1000B0000895A895089578940895009301020895ED
:1000C0000093B801089562D6F6DF00E00A9310E0CD
:1000D0001A931A931A931A931A9306EC1A930A9383
:1000E00002EC1A930A9361EC70E040EC50E024ECCF
:1000F00030E005ECE2D308E010E01A930A931A937B
:100100000A9300E11A930A931A930A9302E312E006
:100110001A930A9302E212E01A930A9302E112E0A0
:100120001A930A9302E012E01A930A9302E612E08D
:100130001A930A9302E412E01A930A9301E00A93D5
:1001400038E02EE440E855E260E070E0E0EEF2E0F6
:1001500000811181E1D001E027D037D102E0B0DF8A
:100160002EEC32E00EEB12E04AD560D264D300E010
:10017000A4DFE5D299D115D39CDFFBCF23E0073173
:1001800030E0130710F422E00DC00F38130710F40D
:1001900021E008C0013A130730F00A3232E01307B9
:1001A00008F420E0022F08950093B60108957ED64A
:1001B000C8010DD198018C0120D1E2E080C674D62F
:1001C000822FDA019D01106812D1A00FB11F8C930C
:1001D0000F5F1F4FE4E071C666D608011A0150E0B8
:1001E0004424A0E0B0E08D819E8102C0439411962A
:1001F000A217B307D0F48001F80131960F01F10185
:10020000E00FF11F0081002329F001E010E0442DF0
:1002100019D6502B07E0401649F7FB01E80FF91FEC
:100220005083019650E04424E2CF442029F0680F27
:10023000791FFB01508301968C01E7E03DC630D663
:10024000F801C90100811181728066242381622A2C
:10025000B481A0E02581A22B2B2B21F0A13D27E02A
:10026000B20718F0AC0123E00CC0EFEBF1E0228103
:100270003381A3014A0F5B1F2417350720F4AC011B
:1002800022E09DDF1BC09C01B2D09801FC01E00F71
:10029000F11F43E08D01DBD5A8010A2F077009F09B
:1002A000439540832F5F3F4F3A932A93BC01EFEB76
:1002B000F1E0408151819D0183018EDF9801890128
:1002C000E8E0F7C5F80100811181602F762F770FE4
:1002D000770B0090B60111246015710529F00023F9
:1002E00019F000E010E00895113019F48F01A7DF34
:1002F00003C0A90121E063DFE4EBF1E00083118397
:1003000008950091AD0208950091AE020895EEEDBA
:10031000F2E0008111810895C7D5EFECF1E004838C
:1003200015834083518362837383208736830C81D6
:1003300007830D811E81ABEBB1E00D931C932F81E0
:100340003885ADEBB1E02D933C9349855A85AFEBF1
:10035000B1E04D935C934B855C85A3ECB1E04D938C
:100360005C934D855E85A5ECB1E04D935C934F8524
:100370005889A7ECB1E04D935C9349895A89A1EC67
:10038000B1E04D935C934B895C89A9ECB1E04D934E
:100390005C934D895E89ADECB1E04D935C934F89E0
:1003A000588DABECB1E04D935C933A932A931A933A
:1003B0000A936781568140850081118122813381B2
:1003C000B3D2E9E17AC500D3089507D308956CD577
:1003D000D801C90138DEFD01E80FF91F008301963D
:1003E000A80FB91F1C9301968C01E4E066C5F901C2
:1003F0000083118302E010E00895FED2089584DFA7
:1004000008957FDF08951FD3089581DFE9EBF1E0C0
:1004100020813181021B130B0430104010F001E0E9
:10042000089500E0089573DFE9EBF1E02081318168
:10043000021B130B083920E0120710F001E00895A9
:1004400000E0089564DFE9EBF1E020813181021BD7
:10045000130B0530104010F001E0089500E00895FE
:1004600056DFE9EBF1E00083118308951BD5C80145
:10047000243000E03007A8F0FC01E20FF31F3297B0
:10048000B181A0E00081A02B2250304029018C01D5
:10049000DADD92018C01D7DD0A171B0711F401E0A8
:1004A00001C000E0E6E007C50091B801025091F0FC
:1004B0000A95C9F00A9509F444C00A9509F47BC06D
:1004C0000A9509F489C00A9509F48AC00A9509F4C5
:1004D00095C00895C5DF77DFE4EBF1E000E000832D
:1004E000018303E065C08DDF002331F120E230E0BD
:1004F000E4EBF1E000811181201B310B408151813F
:10050000EBEBF1E000811181040F151F7CDF01305E
:1005100020E012075CF0E4EBF1E020813181200F54
:10052000311F208331839CDF04E004C00F3F1F4F45
:1005300019F402E00093B80176DF002309F061C0EE
:1005400008955FDF002329F120E230E0E4EBF1E0E1
:1005500000811181201B310B40815181EBEBF1E0D7
:1005600000811181040F151F4EDF013020E01207BA
:1005700054F0E4EBF1E020813181200F311F208322
:1005800031836EDF06C00F3F1F4F19F402E0009366
:10059000B8013BDF0023C1F1E4EBF1E020813181C0
:1005A000EBEBF1E00081118161DF002351F105E007
:1005B0000093B8010895E4EBF1E040815181EDEB47
:1005C000F1E020813181EBEBF1E0008111817ADEF5
:1005D000012BB9F006E0ECCFF6DE42DF07E0E8CF12
:1005E00031DF002389F0E4EBF1E020813181EDEB94
:1005F000F1E000811181DBDD08E0DACF00DF0023CC
:1006000019F002E00093B801089500917A00102FCC
:1006100014FF07C000917A00006100937A0001E0A6
:10062000089500E008950091B502089528D301E0EF
:100630000093DB010895E9EDF1E000E00083018320
:10064000F7D20895F0DF089501D308952DD400E086
:100650000093F40102E40093F50182E060E028C019
:10066000062F102F110F110B000F111FE4E8F1E0FE
:10067000E00FF11F008118E0019F0CED11E0000D6B
:10068000111D4181040F191FF801008110E0037052
:10069000422FD8D3FD01108D102B108F63952E5F44
:1006A00028308CF08395ECEDF1E0E80FF91F908F86
:1006B00090E0ACEDB1E0A80FB91F683134F4FD0152
:1006C000908F20E0EDCF68315CF2282F30E022508F
:1006D000304006EF11E0D9DCFD01008FE4E0EDC30E
:1006E000F901E40FF51F01E900834F5F5F4FF90146
:1006F000E40FF51F01E000834F5F5F4F240F351FAC
:10070000F90102E900834F5F5F4F8A010895CED35C
:100710008901CA014AE050E024EF31E0D9D38C01CD
:10072000E2E0CDC3F8016081615919F0615B19F015
:1007300004C0D6DF01C0EBDFA8018A010895B4D35D
:10074000A9EDB1E00091DB01015019F00A9521F00B
:1007500026C071DF02E021C075DF002301F174DFE4
:10076000013020E01207ACF02D913C91200F311F99
:100770003C932E934D915C91ECEBF2E02081318122
:10078000EAEBF2E000811181CDDF012B29F009E0D5
:1007900004C00F3F1F4F19F400E00093DB01E4E0B9
:1007A0008CC300910102015019F0095059F00895CD
:1007B00000E0009300024CD06ED056D00AE00093C7
:1007C0000102089522DF0023F9F070D06FD0D6DC4B
:1007D0002091000230E0ECEDF1E0E20FF31F008B1E
:1007E000009100020395009300020091000208307E
:1007F00030F440D0009100022BD036D0089540D084
:1008000025DF00E000930102089501E00093B802A3
:100810000895F8940895EEEDF2E0008111810F5FE4
:100820001F4F0083118308955B9808955B9A089584
:100830000093DB0108950FE300937E0007E000932F
:100840007A0000E000937B0000EC00937C000895A8
:1008500010917C00107F10937C000F7010917C0031
:10086000102B10937C00089500917A00006C009387
:100870007A00089500917A000F7300937A0008952A
:1008800000917A000F7300937A0000916400016078
:10089000009364000895009164000E7F009364004B
:1008A00000917A00006800937A0008950091780022
:1008B00010E030917900132B0895F6D2E3E8F2E0CE
:1008C0000083118322833383448355836683778334
:1008D0000C811D81008711870E811F81028713877C
:1008E00008851985048715870A85008F0B851C8567
:1008F000068717870D85018FA485B5850A2F0B2BD9
:1009000089F0408D01E010E09DD21C91102B1C93CA
:10091000418D01E010E096D20095A685B7851C9127
:1009200010231C93EEE0C9C2BED2842F452E962F11
:10093000A3E8B2E04D815E81FD01448B558B4F8170
:100940005885408B518B44E089D2A801B90100E061
:1009500010E820E730E085D2980121503040FD01B9
:1009600002811381F8012083ED91FC91119730836E
:10097000042D075049F00A9571F4FD010085118599
:10098000F8010081066006C0FD0100851185F801AF
:100990000081046000838E3459F0FD0100851185CB
:1009A0008534F801008111F4006201C00063008306
:1009B000913041F0923031F4FD01A085B1850C9168
:1009C00008600C93E9E078C2E3E8F2E000E0068B0F
:1009D000078B02A703A704A7089566D2E3E8F2E015
:1009E000A481B5810C9100680C93A681B7810C910C
:1009F00000690C93E4E061C257D2A3E8B2E0FD01C4
:100A0000008B118B228B338B1496ED91FC911597F3
:100A100000810F7700831696ED91FC911797008166
:100A20000F7600831496ED91FC9115970081006676
:100A30000083FD01A681B7810C9108620C9301E04F
:100A400010E0E4E03AC230D2C801A3E8B2E000E02E
:100A50000093AD020091AF02002331F4FD0106893D
:100A600017890217130718F00FEF1FEF1EC0012B95
:100A7000D1F0CFDE00E010E009C0E00FF11F228DC1
:100A8000FC01E00FF11F20830F5F1F4FFD0126893E
:100A900037890217130788F3822F00E0068B078B34
:100AA0000ADB082F01C000E010E0E4E006C2FCD140
:100AB000A3E8B2E0FD0102891389012BA9F416967F
:100AC000ED91FC91179700810F7D00831496ED91B5
:100AD000FC911597008100640083FD01A681B78118
:100AE0000C9100640C9317C05096ED91FC915197B6
:100AF00000811A96ED91FC911B970083FD010089FE
:100B000011890F5F1F4F008B118B028913890150D0
:100B10001040028B138BE4E0D0C1C6D1A3E8B2E051
:100B20001696ED91FC9117970081077B0083149630
:100B3000ED91FC911597008100680083FD01A6816D
:100B4000B7810C9100690C9301E00093AE02E4E0E0
:100B5000B4C1AAD1A3E8B2E0FD0106891789003427
:100B600020E0120720F001E00093AF0214C01A96B3
:100B7000ED91FC911B9720815496ED91FC91559736
:100B8000E00FF11F2083FD01068917890F5F1F4FBA
:100B9000068B178B01E00093AD02E4E08EC1FA935F
:100BA000EA930A922A931A930A932FB780DF2FBFF2
:100BB0000991199129910990E991F9911895FA9360
:100BC000EA930A921A930A931FB7A7DF1FBF0991EE
:100BD00019910990E991F9911895FA93EA930A927B
:100BE0003A932A931A930A933FB7B3DF3FBF099111
:100BF0001991299139910990E991F9911895EAEBA8
:100C0000F2E0008311832283338304B1026104B9CB
:100C10000CB502600CBD089529980CB5006C0CBD94
:100C200000E00EBD0895299A0CB50F730CBD089510
:100C3000E0EBF2E000E0008301830283038305839D
:100C40000683078300870187048308952FD1E0EB93
:100C5000F2E000E005830185002321F48081918189
:100C6000409718F00FEF1FEF08C000811181012B92
:100C700011F0008101C000E010E0E2E020C100912D
:100C800069000C7F00936900009169000360009384
:100C90006900E89A08958A93FA93EA933A922A921D
:100CA0001A920A927A936A935A934A933A932A939E
:100CB0001A930A938FB74A9913C001E00093E40294
:100CC000B2DF009169000C7F009369000091690018
:100CD00003600093690099DD00E0AADDA7DD10C084
:100CE0009BDF009169000C7F00936900009169000F
:100CF00002600093690001E09BDD01E0DED994DD34
:100D00008FBF09911991299139914991599169910F
:100D100079910990199029903990E991F9918991E7
:100D2000189508E30093B3000091B00002600093AF
:100D3000B0000091B10005600093B1000091700017
:100D400002600093700008958A93FA93EA933A92AE
:100D50002A921A920A927A936A935A934A933A93EE
:100D60002A931A930A938FB756DD8FBF0991199171
:100D700029913991499159916991799109901990E5
:100D800029903990E991F99189911895CADF0895D0
:100D90000F930091B4020EBD0F91FA93EA934A9318
:100DA0003A932A931A930A934FB70EB52091B00243
:100DB0003091B102E091BA02F091BB02E20FF31F51
:100DC00000830091B0021091B102E091BC02F09159
:100DD000BD02E00FF11F01810093B4020091B00247
:100DE0001091B102003420E0120760F4E0EBF2E071
:100DF000008111810F5F1F4F0083118301E0009379
:100E0000B50206C001E00093B90201E00093B5020B
:100E10004FBF09911991299139914991E991F9911E
:100E200018958AC003E80DBF01E00EBFC4E6D1E00B
:100E30004DD0002309F066D046D901D0F2CFF1CFD2
:100E4000000F111F4A95E2F70895169507954A95E8
:100E5000E2F70895000F111F221F331F4A95D2F7A2
:100E60000895002411241001E0E2001F111F221F29
:100E7000331FEA9572F0001C111C221C331C04164F
:100E800015062606370688F3041A150A260A370AB5
:100E9000ECCFA001B10100951095209530950895F3
:100EA0007A926A925A924A92BA93AA939A938A939E
:100EB00008957F806E805D804C80BB81AA8199817E
:100EC0008881F0E0EC0FFD1FEF01089501E0089527
:100ED000EBDFD80106C0F90161919F016D9341508C
:100EE0005040642F652BB9F7E4E0E7CF20E02D9365
:100EF00001501040E1F7089525912D9301501040C5
:100F0000D9F708958AE390E0FC0105911491FC0162
:100F10003296A591B491FC01349625913491422FDB
:100F2000432B19F0F901E8DF01C0E0DF069610E07D
:100F30008634910748F30895FFCF000600070000AC
:100F40000001000200030004000501060107010082
:100F5000010101020103010401050206020702006A
:0A0F6000020102020203020402056E
:000E2401CD
:00000001FF
