:1000000069C5F4C31895189518951895189549C49D
:100010001895189518951895189518951895189578
:1000200018950C94970405C31CC31895189518953A
:10003000189518953E008500C700360287026C03AC
:10004000DF036103F2049C00BA0100003600840162
:10005000360EB000B80100E040E0542F550F550BAC
:100060004217530750F4542F550F550BFB01E40F63
:10007000F51F1081010F4395F0CF08956FD5C8018A
:10008000082F092B21F020FB16F48C0135D5E2E076
:1000900074C5A8950895789408950093C1010895B2
:1000A00008955AD52C971FD4F6DF24EF31E08E0146
:1000B0000A5F1F4F85D42AE030E08E0181D427E308
:1000C00032E007E212E013D36DD0DBD100E0E5DFD0
:1000D00080E090E0A0E0B0E023D164D1082F005090
:1000E00049F00A9551F00A9541F0035029F00A951C
:1000F00021F003C081E001C0D3DFCBDFEDCF26E3E9
:1001000030E0F80121833283089528D5C801082FF3
:10011000092B21F020FB16F48C01EED4E2E02DC572
:10012000980103E0273110E0310710F402E0089550
:100130002F3810E0310710F401E00895213A10E063
:10014000310728F02A3212E0310708F400E0089560
:1001500005D5C80122E030E08C01D7DFE2E00DC513
:1001600060E172E048E150E023E030E002EC11E0B1
:10017000A4D504E811E070D408956DE172E048E17F
:1001800050E023E030E002EC11E0DED50895E6D443
:10019000C801082F092B21F020FB16F48C01ACD4E8
:1001A000E2E0EBC417D301E00093BD010895EEEB4C
:1001B000F1E000E0008300E00183B4D2089553D160
:1001C0000895CFD20895C8D4A0E08CE092E0B0E0CA
:1001D000FC01EA0FFB1F00E00083A395B0E0FC01E7
:1001E000EA0FFB1F02E40083A39520E028310CF006
:1001F00046C0B0E0FC01EA0FFB1F00E0008330E0E6
:100200003830ACF52831DCF5022F102F110F110B0F
:10021000000F111FF801E657FE4F008110E048E182
:1002200050E070D462EC71E0600F711F022F102F4C
:10023000110F110B000F111FF801E657FE4F01813E
:1002400010E043E050E05ED4600F711FFB010081BD
:1002500010E003701070432F5FD4B0E0FC01EA0F90
:10026000FB1F1081102B108323953E5FC9CFA395F0
:10027000B0E0FC01EA0FFB1F00E00083B7CF2A2F9C
:1002800030E0225030408C010E5F1F4FE3DEB0E0C3
:10029000FC01EA0FFB1F0083E4E06DC4B8018A0192
:1002A00042E9F901E00FF11F51E950830F5F1F4F41
:1002B000F901E00FF11F51E050830F5F1F4FF9016B
:1002C000E00FF11F40830F5F1F4F089543D42801B3
:1002D000D901CA014AE050E02CE032E08D0156D449
:1002E0008C01E6E046C434D4D80129013A01C301A7
:1002F0000C91015891F00A9581F00F5019F0015BB3
:1003000039F00BC0AC0192018D01C8DFC80105C0F6
:10031000AC0192018D01DADFC8018C01E8E027C44D
:100320001DD40091BD010050D9F10A9529F00A951C
:1003300041F00750A9F134C03ADF02E00093BD015B
:100340002FC03DDF002361F13CDFC801813000E0B8
:100350009007FCF0EEEBF1E000811181080F191F0E
:1003600000831183EEEBF1E040815181ECE1F2E09A
:1003700020813181EAE1F2E000811181B4DF012BBB
:1003800021F009E00093BD010BC000E00093BD0126
:1003900007C08F3F0FEF900719F400E00093BD01F5
:1003A000E2E0EBC3DBD30091C1010050B9F10A9543
:1003B00019F0095069F032C000E00093C0010091CB
:1003C000C0016CD08FD077D00AE00093C10126C065
:1003D0003CD0002319F191D0C8018FD0A1DE202F8D
:1003E0000091C00110E043E050E08CD3F801EE53DF
:1003F000FE4F20AB0091C00103950093C001009116
:10040000C001083030F45DD00091C00147D053D016
:1004100005C05DD0D8DE00E00093C101E2E0ADC3CD
:100420009DD3C8016FE770E043E050E028E030E082
:100430008C0143D48C01E2E0A0C368EA70E043E0A1
:1004400050E028E030E080D4089500917A00102F29
:1004500014FF07C000917A00006100937A0001E068
:10046000089500E0089500912202089577D3C8010D
:10047000082F092B21F020FB16F48C013DD3E2E07C
:100480007CC30FE300937E0007E000937A0000E056
:1004900000937B0000EC00937C00089510917C0099
:1004A000107F10937C00102F1F7020917C00212B57
:1004B00020937C00089500917A00006C00937A00EC
:1004C000089500917A000F7300937A0008950091C7
:1004D0007A000F7300937A0000916400016000932A
:1004E00064000895009164000E7F00936400009101
:1004F0007A00006800937A0008952091780030E037
:1005000089013091790020E0022B132B089526D326
:10051000C801082F092B21F020FB16F48C01ECD226
:10052000E2E02BC319D3F801418901E010E0F4D2D5
:100530000095A785B0891C9110231C93E4E01BC390
:100540000BD3F80124893589232B99F4F801A6816E
:10055000B7812C912F7D2C93F801A481B5812C912A
:1005600020642C93F801A681B7812C9120642C93F0
:1005700015C0F801A289B3899D012F5F3F4FF80193
:10058000228B338B2C91F801A285B3852C93F80133
:100590002489358921503040248B358BE4E0EBC22F
:1005A000DBD2D8011696ED91FC9117970081077B5D
:1005B0000083FD0104851585012B11F08D01B2DF4B
:1005C0001496ED91FC9115970081006800831696B2
:1005D000ED91FC911797008100690083FD0101E016
:1005E000038FE4E0C8C2B8D2F801208D318D2030ED
:1005F00041E0340738F0F80121E0248FF80121E0D0
:10060000228F15C0F801208D318DC9010196F801A6
:10061000808F918FF801A285B3854C91F801A6894E
:10062000B789A20FB31F4C93F80121E0228FE4E0B9
:10063000A2C2FA93EA930A924A933A932A931A939C
:100640000A934FB70091490210914A0279DF4FBFD8
:10065000099119912991399149910990E991F9915B
:100660001895FA93EA930A924A932A931A930A9353
:100670002FB70091490210914A0292DF2FBF0991D2
:100680001991299149910990E991F9911895FA9355
:10069000EA930A925A934A933A932A931A930A93A3
:1006A0005FB70091490210914A029DDF5FBF099137
:1006B000199129913991499159910990E991F991AB
:1006C00018954CD2C801082F092B21F020FB16F4F5
:1006D0008C0112D2E2E051C241D2C801082F092B8D
:1006E00021F020FB16F48C0107D2E2E046C2EAE1D9
:1006F000F2E000831183ECE1F2E02083318344B126
:10070000426144B94CB542604CBD089529980CB57E
:10071000006C0CBD00E00EBD0895299A0CB50F7356
:100720000CBD0895EEE1F2E000E0008300E00183FB
:10073000E0E2F2E000E0008300E0018300E00093EB
:10074000220200E00093230200E00093240200E074
:100750000093250200E00093260200E000931902B6
:100760000895FAD100E000932202009126020023AE
:1007700019F00FEF1FEF21C0AEE1B2E0ED91FC9157
:100780001197709718F00FEF1FEF17C0EEE1F2E02E
:1007900000811181012B31F0EEE1F2E00081118145
:1007A00010E00BC0EEE1F2E000811181012B19F4A1
:1007B00000E010E002C000E010E0E4E0DCC1CED1D7
:1007C000C801082F092B21F020FB16F48C0194D1CD
:1007D000E2E0D3C1009169000C7F009369000091B1
:1007E0006900036000936900E89A08958A93FA9378
:1007F000EA933A922A921A920A927A936A935A93B5
:100800004A933A932A931A930A938FB74A9914C03A
:1008100001E000934F026BD080DF009169000C7FF4
:10082000009369000091690003600093690067D03C
:1008300000E07AD077D011C05ED068DF0091690007
:100840000C7F0093690000916900026000936900C9
:1008500001E06AD001E021DC63D08FBF09911991DA
:1008600029913991499159916991799109901990FA
:1008700029903990E991F9918991189508E30093AD
:10088000B3000091B00002600093B0000091B1008D
:1008900005600093B1000091700002600093700049
:1008A00008958A93FA93EA933A922A921A920A92B4
:1008B0007A936A935A934A933A932A931A930A9390
:1008C0008FB721D08FBF0991199129913991499101
:1008D0005991699179910990199029903990E991EC
:1008E000F99189911895CADF17D018D0089500E0C2
:1008F00000932402089501E000932402089501E08A
:10090000009325020895E7E4F2E0008111810F5F72
:100910001F4F008311830895539A0895539A0895A1
:100920005B9808955B9A08950093BD0108950F9315
:10093000009119020EBD0F91FA93EA934A933A93EC
:100940002A931A930A934FB70EB520911E02309145
:100950001F02E0911A02F0911B02E20FF31F0083C5
:1009600000911E0210911F02E0911C02F0911D02E5
:10097000E00FF11F01810093190200911E021091F6
:100980001F02003420E0120760F4EEE1F2E0008183
:1009900011810F5F1F4F0083118301E0009322023A
:1009A00006C001E00093260201E0009322024FBF3F
:1009B00009911991299139914991E991F9911895E4
:1009C000CBD0D801C90104E410E0FD0104831583F4
:1009D00014D0FD01028313838D939C9311978D0195
:1009E000E4E0C9C0BBD0C801082F092B21F020FBCF
:1009F00016F48C0181D0E2E0C0C0E7E4F2E00081AF
:100A000011810895802F912F41D0082F192FA2C155
:100A100001E010E09FC19CD02801390182E092E002
:100A2000D20109C01296823029F4FD010591F4919A
:100A3000E02F09951296A615B70549F0FD012591FD
:100A400034912030304071F3823079F7F3CF8A95BA
:100A50009A9531F7E8E08BC07FD0D801ED91FC91F9
:100A6000119700811181012B21F42FD0A017B1071C
:100A700009F4CEDF2AD0ED91FC9111970083118308
:100A8000E0E5F2E0A083B183E4E075C065D001C089
:100A900009951BD0012BC1F00081E0915002F12F8C
:100AA000A081B1812D913C91E0E5F2E0208331837A
:100AB000D8011496ED91FC91D80112960D911C91DC
:100AC000202F212B29F7E4CFDFCFE0E5F2E00081F2
:100AD0001181089503E80DBF01E00EBFC4E6D1E027
:100AE00053D0002309F06CD002E510E024E530E09B
:100AF00092DFD7DA06D086CF202F212B09F02BD119
:100B0000089580CF149F102D059F100D049F002D78
:100B1000110D0895000F111F4A95E2F70895002462
:100B20001124E0E1001F111FEA9542F0001C111C86
:100B300004161506B8F3041A150AF4CFA00100959F
:100B400010950895DA92CA92BA92AA929A928A92CB
:100B50007A926A925A924A92BA93AA939A938A93F1
:100B60000895DD84CC84BB84AA84998488847F80A2
:100B70006E805D804C80BB81AA8199818881F0E084
:100B8000EC0FFD1FEF01089501E00895E5DFD801A6
:100B900006C0F90161919F016D9341505040642F4F
:100BA000652BB9F7E4E0E7CF20E02D93015010402A
:100BB000E1F7089525912D9301501040D9F708953C
:100BC00086E490E0FC0105911491FC013296A59118
:100BD000B491FC01349625913491422F432B19F0A6
:100BE000F901E8DF01C0E0DF069610E082359107E9
:100BF00048F3089504501040672B11F02C5F3F4FCD
:100C0000FA010994ABDFF801890134978081918161
:100C1000428153814095509575DF8017910709F007
:100C2000F7DE8C01E2E0A9CF8DDFD80169015A011E
:100C3000CB010B2B21F0088D198D012BE1F08901DF
:100C400061DF28010A2F0B2B69F4042D0C5F1F4F65
:100C5000EA89FB890995D801012B09F014960A2F1E
:100C60000B2B29F1FD0134974082518286010095BA
:100C70001095028313838E849F8400E08016900673
:100C8000B1F0442455243D010AC09C0113D08A0DC3
:100C90009B1D01E0400E00E0501E6A0C7B1C4C14B2
:100CA0005D0428F4082F092B81F704D0F2CF8D01C1
:100CB000EAE157CF8301F4010994E0E008D007D0BE
:100CC00001D0B2CF7A936A9360E070E008953FD08C
:100CD000EA93089537DF5801C9013A016B014424B2
:100CE0005524012B79F12F3F3F4F39F49A010A2DFA
:100CF00089DF2801A30113DFC80100E0C016D00678
:100D0000B1F0A0E0B0E08C0101501040A301FADE88
:100D1000450108C08401F6010995119683011195DA
:100D200001951040800E911EA817B90798F34E85C3
:100D30005F8500E04030500729F068897989920189
:100D4000850158DFE2E10DCF01D0C4CFE0E000D053
:100D5000EA93BECFFFCF00DF202F212B09F464C020
:100D600002501040F80140815181443020E0520788
:100D700008F45AC022E532E0D9011296ED91FC91B7
:100D80006E2F6F2B19F00E171F0738F4D80112962B
:100D9000ED93FC93F90124C0FB0148D019F06017D2
:100DA0007107D0F300801180BF01600D711D06171F
:100DB0001707D0F16017710739F48001040F151F70
:100DC000008311838F010EC031D031F00801040E71
:100DD000151E6015710540F1D80112966D937C9334
:100DE00002831383F801A281B3814A2F4B2BE1F0D8
:100DF00040815181B801640F751F6A177B07A1F408
:100E0000F90120E020832183FD0120813181F80157
:100E100040815181420F531F40835183FD01228144
:100E20003381F80122833383E4E0A5CE62817381AC
:100E3000062E072A08950A020000BD0000060007DA
:100E40000000000100020003000400050106010784
:100E5000010001010102010301040105020602076C
:0C0E60000200020102020203020402056B
:000AD40121
:00000001FF
