:10000000B5C50BC51895189518951895189549C537
:100010001895189518951895189518951895189578
:1000200018955BC543C475C4A6C418951895189552
:10003000189518950000000000000000C30400009F
:10004000AE050A0035020800E501EE0101021802C2
:100050001C021F022A023102F400B4010000300029
:100060008401180E32D6F801C9012FEF3FEF03C00B
:100070000A9539F40197082F092B71F00191202777
:1000800008E0A9015695479520FB9A018EF711E0EB
:10009000212710EA3127ECCF8901E2E01DC660E09C
:1000A00040E009C0542F550F550BF801E40FF51F20
:1000B0005081650F4395542F550F550B4217530729
:1000C00088F3062F089506D5789400E00A9310E08F
:1000D00041D01A9306EC43D002EC41D061EC70E0C1
:1000E00040EC50E024EC30E005EC14D308E010E0E4
:1000F00036D035D000E333D008E031D02BD005ED39
:1001000011E02DD000E00A930A9305E212E027D017
:1001100005E012E024D001E00A9338E02EE440E844
:1001200055E260E070E000E010E0C0D001E02FD0C8
:1001300000E00093BF0122E932E002E812E02AD495
:10014000BBD1AED200E00093D40126D22BD169D22C
:10015000A895FBCF1A931A931A931A9308951A939A
:100160000A93089523E0073130E0130710F422E0EA
:100170000CC00F38130710F421E007C0013A130731
:1001800028F00A32124008F420E0022F089500936C
:10019000B40108959AD5C801BCD098018C01D3D080
:1001A000E2E09AC58ED518012A01A0E0B0E0C901AD
:1001B0000FC000E0F101E80FF91F0083119648E03D
:1001C00050E08D01FED443E0E6D4A01BB10B0196B4
:1001D0008901040D151D8017910790F40C01021A76
:1001E000130A48E050E08001ECD4FB01E00FF11F5E
:1001F00050814A2F38D0CFD45023D9F201E0DACF42
:10020000E6E066C560D5413D17E0510710F000E11A
:1002100018C0A5EBB1E01091BF01112311F000E06F
:1002200010C012E01093BE014D935C931197FD0135
:10023000648175817ED0FD01028313830EE0028705
:1002400001E0E4E047C5E5EBF1E0B8012081518130
:10025000008510E00150104044E09DD4422F9801E9
:10026000068117819FDF01E010E00895F8014181C8
:100270005091BD016081561751F45091BE01541741
:1002800031F4423019F40D5F1F4FDDDFECCF253024
:10029000304059F447FB4EF402810C3024F4102F07
:1002A000110F110B08950EE010E008950CD5E8EC45
:1002B000F1E04083518362837383268334830C810E
:1002C00005830D811E81A2ECB1E00D931C932F815B
:1002D0003885A9EBB1E02D933C934B855C85ABEB66
:1002E000B1E04D935C934B895C89A4ECB1E04D93F4
:1002F0005C9342E04093BD013A932A931A930A9388
:1003000065815481468135D02281338117D2E9E15C
:10031000E1C4D9D4D801C901A5DEFD01E80FF91F58
:1003200000830196A80FB91F1C9301968C01E4E08D
:10033000D1C4FB010083118332832383548345831B
:1003400006E010E008957FC285C2AFD040815181A0
:10035000241B350B2017310710F001E0089500E051
:100360000895E0ECF1E00083118308957FD0E2EC82
:10037000F1E0008111810895A8D4243040E03407D1
:1003800070F0F801E20FF31F3297918180812250C3
:10039000304068DE0817190711F401E001C000E0E1
:1003A000E2E09AC490D4E7EBF1E0E3DFE2ECF1E0C5
:1003B000A081B181A00FB11F80E290E0801B910B62
:1003C0000091BF01E2E4F0E03FC460D0E7EBF1E070
:1003D00000E00083018313D20BE045C000916A0264
:1003E000002359F048D01CF057D00CE004C00F3F58
:1003F0001F4F19F401E10093BF0104E143D0D1F490
:1004000034C000916A02002351F035D014F044D07A
:1004100006C00F3F1F4F19F401E10093BF0104E034
:1004200031D019F1A3DFA8DF002321F00DE01BC0BC
:100430009DDF1CDF01E117C029D00FE014C005E0EB
:1004400021D099F013D0E9EBF1E093DFA3DEE4D102
:1004500000E109C000916B02002339F0EDD10AE000
:1004600002C0D2D100E00093BF0161CFE7EBF1E021
:100470002081318108959C018D0166DF013020E0EB
:100480001207089510E061DF00230895E2EAF2E028
:100490000081118166DFABC108D020833183E6DFA4
:1004A000200F311F208331830895E2EAF2E020819A
:1004B0003181E0ECF1E00895ADD201E00093D2018A
:1004C0000895F901E40FF51F01E90CD0F901E40FDB
:1004D000F51F01E007D0240F351FF90102E902D012
:1004E0008A01089500834F5F5F4F0895ECD3D901CF
:1004F00000E00C93F90102E4018382E090E000E067
:1005000050E034E0602F702F770F770B660F771F66
:10051000E4E8F1E0E60FF71F40814295407F11814A
:10052000110F410F20E012E05695042E1124722F76
:10053000770F770B020E171EF001EB52FE4F608112
:10054000662309F0506823951A9571F703953A953B
:1005500019F0083144F4D6CFFD01E80FF91F50839C
:10056000019608316CF29C01225030408D010E5FE3
:100570001F4F95DDA80FB91F0C938C01E4E0AAC3AF
:10058000F8016081615919F0615B19F004C099DFCD
:1005900001C0ACDFA801A4CF96D3A0EDB1E00091DB
:1005A000D2010A9529F00A9559F0085059F107C06F
:1005B0000BD200E00D930C9302E00093D201DECF4A
:1005C000009178020023D9F30DD2013020E0120708
:1005D000A4F02D913C91200F311F3C932E93A90143
:1005E000E0E8F2E020813181EEE7F2E00081118164
:1005F000C7DF012B29F009E0E0CF0F3F1F4FF9F6CD
:1006000000E0DBCF0091BD01023010F001E001C03D
:1006100003950093BD0140E150E020E030E0F2DDC1
:10062000EFCF0091D4010A9519F00A5059F00895BE
:1006300000E00093D3015ED02ED04BD00BE00093AE
:10064000D401089500917A0004FF24C000917A003B
:10065000006100937A0059D085DD1091D30122E02A
:10066000129FE5EDF1E0E00DF11D102F117010A3C8
:1006700001FB10E010F911A3E3EDF1E00081039517
:100680000083083018F42BD006D023C02CD000E013
:100690000093D40108950091D3010FC010E0089594
:1006A0000FE300937E0007E000937A0000E00093E0
:1006B0007B0000EC00937C00089510917C00107F7B
:1006C00010937C000F7010917C00102B10937C0015
:1006D000089500917A00006C00937A0008950091CB
:1006E0007A000F73F9CFFBDF009164000160009383
:1006F00064000895009164000E7F009364000091EF
:100700007A00006800937A000895009178001091B3
:10071000790008950FD048D1448355836683778349
:100720000C811D81008711870E811F81028713872D
:10073000EEE0D0C2C8D2E6E4F2E00895C3D2842F3E
:10074000452E962FA6E4B2E04D815E81FD01408BDF
:10075000518B4F815885448755874481F5813CD022
:100760004681F78139D04085F185E42F40E0408310
:1007700044E042D2A801B90100E010E021EE30E0EF
:100780003ED2980121503040FD010281F381E02FDB
:100790002083BCD011973083042D075029F00A958F
:1007A00031F41FD0066002C01CD0046000838E3478
:1007B00039F0853416D011F4006201C00063008363
:1007C000913041F0923031F4FD01A085B1850C915A
:1007D00008600C93E9E07DC2E42F40E04083FD0116
:1007E0000895FD010085F185E02F00810895A3DFC4
:1007F00000E0028B038B04A305A306A3089516D083
:1008000000680FD000691CC05ED2ACE4B2E07ED0BC
:1008100000810F76008315C009D0006602D00862FF
:100820000FC00C93A681B7810C9108954CD2E6E4D9
:10083000F2E0A481B581F8CFF9DF0F7DF2DF07790F
:100840000C93E4E047C277DF048715872687378754
:1008500001E024CF6FDF40E044A346A1442329F404
:10086000428953894217530718F00FEF1FEF1DC03D
:10087000452BC9F0F89480E090E00AC0DF01A80F92
:10088000B91F54962C91D801A80FB91F2C9301962B
:10089000228933898217930788F3022F10E0128B85
:1008A000138B789402C000E010E0CBCFBA93AA93E8
:1008B000FA93EA933A932A931A930A933FB7A6E4DA
:1008C000B2E0FD0102891389003420E0120718F01C
:1008D00001E006A30FC01A9619D01B972081FD01D5
:1008E000E00FF11F248BFD01028913890F5F1F4F59
:1008F000028B138B01E004A33FBF09911991299149
:100900003991E991F991A991B9911895ED91FC91DD
:100910000895BA93AA93D7D0A6E4B2E0FD01068564
:100920001785012B81F4169622D00F7D0083EEDF10
:100930001597008100640083FD01A681B7810C91A9
:1009400000640C9312C01C9612D0E0DF1B9700834A
:10095000FD01048515850F5F1F4F048715870685E8
:1009600017850150104006871787A6D0CCCFED9190
:10097000FC9113973ACF0A9301E000936B0209911F
:100980001895E2E0A9C1402F412B19F020FB0EF48D
:10099000FAD00895EEE7F2E007D004B1026104B99D
:1009A0000CB502600CBD089500831183228333834C
:1009B000089529980CB5006C0CBD00E00EBD08959B
:1009C000299A0CB50F73EECFE3E7F2E000E0008365
:1009D00001830283038305830683078300870187DE
:1009E0000483089572D1E3E7F2E000E00583018516
:1009F000002321F480819181409718F00FEF1FEFC1
:100A000008C000811181012B11F0008101C000E0BC
:100A100010E0B7CF28D0E89A08951A930A931FB729
:100A200001E04A990DC000937D0200E000937A0234
:100A3000C7DF19D001E000937B020AE05B980DC08C
:100A400000937A02B6DF16D000916900026000932D
:100A5000690001E00093D4015B9A0093D2011FBFAB
:100A600009911991189506D00091690003600093CF
:100A700069000895009169000C7FF9CF02E70093A7
:100A8000B3000091B00002600093B0000091B1008B
:100A900005600093B1000091700002600093700047
:100AA000089511D0E2EAF2E0008111810F5F1F4F3B
:100AB0000083118301D018952FBF099119912991B5
:100AC000E991F9910895FA93EA932A931A930A9374
:100AD0002FB70895D3DF539A0895FA93EA934A9370
:100AE0003A932A931A930A934FB7009177020EBD57
:100AF0000EB52091730230917402E0917E02F09164
:100B00007F02E20FF31F00830091730210917402C1
:100B1000E0918002F0918102E00FF11F01810093CA
:100B20007702E0917302F0917402709740F4E3E76A
:100B3000F2E000810F5F1F4F0083118303C001E0CB
:100B400000937C0201E0009378024FBF0991199154
:100B5000299139914991E991F9911895402F412BAB
:100B600019F020FB0EF40FD00895E5C003E80DBF87
:100B700001E00EBFC4E6D1E0B6D0002309F0C1D039
:100B8000A2DA06D0F2CF202F212B09F0D5D008957C
:100B9000ECCF000F111F4A95E2F7089500241124AD
:100BA000E0E1001F111FEA9542F0001C111C041621
:100BB0001506B8F3041A150AF4CFA0010095109594
:100BC0000895FF27552312F4F1600ED0112312F47B
:100BD000F09506D0E3DFF0FD03D0F1FD05C00895E8
:100BE00011950195104008955195419550400895F3
:100BF000000F111F221F331F4A95D2F708950024BA
:100C000011241001E0E2001F111F221F331FEA957B
:100C100072F0001C111C221C331C0416150626063B
:100C2000370688F3041A150A260A370AECCFA00102
:100C3000B101009510952095309508954591159036
:100C400011FA259035900895F9DF041B10E000C0DB
:100C500020E030E000C0B8F010FC17C045910590CE
:100C6000E00FF11F0417100540E02407340758F483
:100C700036F404910024F101E01BF0090994E00F1F
:100C8000F11F25903590F101099411F4D6F7F1CFB9
:100C900031960EF0319650E060E070E045914B3FA8
:100CA00048F089F34F3F29F04E3F11F0759165915F
:100CB00055914591041B150B260B370B39F318F38F
:100CC000E7CF5A924A92BA93AA939A938A93089535
:100CD0005D804C80BB81AA8199818881F0E0EC0F16
:100CE000FD1FEF01089501E0089520E02D930150CC
:100CF0001040E1F7089525912D9301501040D9F748
:100D0000089588E590E0FC0105911491FC0132966C
:100D1000A591B491FC01349625913491422F432B37
:100D200019F0F901E8DF01C0E0DF069610E0843633
:100D3000910748F30895FFCFC6DF202F212B09F438
:100D400064C002501040F80140815181443020E0DD
:100D5000520708F45AC024EA32E0D9011296ED9104
:100D6000FC916E2F6F2B19F00E171F0738F4D80166
:100D70001296ED93FC93F90124C0FB0148D019F0C1
:100D800060177107D0F300801180BF01600D711DE5
:100D900006171707D0F16017710739F48001040FA7
:100DA000151F008311838F010EC031D031F008016F
:100DB000040E151E6015710540F1D80112966D9351
:100DC0007C9302831383F801A281B3814A2F4B2BBA
:100DD000E1F040815181B801640F751F6A177B07EC
:100DE000A1F4F90120E020832183FD0120813181DC
:100DF000F80140815181420F531F40835183FD010F
:100E000022813381F80122833383E4E063CF62815E
:100E10007381062E072A08950006000700000001CE
:100E200000020003000400050106010701000101A2
:100E3000010201030104010502060207020002018A
:080E4000020202030204020594
:000B6C0188
:00000001FF
