:100000009CC618951895189518951895189570C64A
:100010001895189518951895189518951895189578
:10002000189518953EC61FC62EC618951895189592
:1000300018951895000000000000030184010000DD
:10004000F8010FEF1FEF522F532BC1F0608170E0CA
:1000500006271727319648E0442369F000FB3EF459
:100060001695079551E0052750EA152702C0169509
:1000700007954A95F1CF21503040E5CF0801012C7A
:100080001124B801762F60E0800106271727089514
:10009000A8950895789408950093AD01089500936C
:1000A00086010895ADD646D6F5DF00E00A9300E05C
:1000B00010E01A930A9300E00A9300E010E01A930C
:1000C0000A9306EC10E01A930A9302EC10E01A93DC
:1000D0000A9361EC70E040EC50E024EC30E005EC79
:1000E00010E0D1D308E010E01A930A9308E010E082
:1000F0001A930A9300E110E01A930A9300E110E0CA
:100100001A930A9302E012E01A930A9302EF11E0A5
:100110001A930A9302EE11E01A930A9302ED11E08A
:100120001A930A9302E312E01A930A9302E112E08F
:100130001A930A9301E00A9338E02EE440E855E26E
:1001400060E070E0E2E8F2E00081118130D101E08E
:1001500026D09CD102E0A3DF50D300E09DDF80E0F9
:1001600090E0A0E0B0E024D204D392DFFCCF98016D
:1001700003E0273110E0310710F402E008952F3832
:1001800010E0310710F401E00895213A10E0310742
:1001900028F02A3212E0310708F400E008950093B5
:1001A000840108952DD6D801C9019C018D0170D11B
:1001B000C8019C018D018DD1E4E033C61ED6402ECE
:1001C000512E622ECA019C01152D1068042D78D184
:1001D000D801FC01EA0FFB1F608211968D01E7E058
:1001E0001DC60DD608011A018D819E8150E0442460
:1001F000A0E0B0E0A217B307E8F48001F80131965F
:100200000F01F101E00FF11F0081002329F001E04F
:1002100010E0442DA2D5502B07E0401641F4FB011D
:10022000E80FF91F5083019650E0442401C0439425
:100230001196E0CF442029F0FB01E80FF91F50830D
:1002400001968C01E7E0ECC5D1D538012901CA013E
:10025000BB24AA24A394F301EA0DFB1D3197D0809F
:10026000F301EA0DFB1DC080F301EA0DFB1D918037
:100270008824F301EA0DFB1D028110E0802A912AF7
:10028000F301EA0DFB1DB381A0E0F301EA0DFB1DB4
:10029000048110E0A02BB12B0A2F0B2B21F0A13DE4
:1002A00007E0B00738F0A20123E01C2D0D2D86DFFA
:1002B000C80137C0E7E9F1E00081118194012A0FFC
:1002C0003B1F0217130738F4A20122E01C2D0D2D4D
:1002D00075DFC80126C092011C2D0D2DF1D0C8017B
:1002E0000A2F0770002351F043E08D013BD50395A1
:1002F000F201E80FF91F0083019608C043E08D0169
:1003000031D5F201E80FF91F008301969A938A9381
:10031000B201EFE8F1E0408151819D01840161DF8C
:10032000C8018C01EEE073C561D5D80129013A01FD
:10033000DD24CC24C394FD01EC0DFD1D319780809C
:10034000FD01EC0DFD1DA080C301982C990C9908AE
:100350000091840110E08016910629F0882019F0A0
:1003600000E010E017C0BA2CBB0CBB080A2D01300E
:1003700031F4AC0192018D0167DFC80106C0A20112
:1003800021E01A2D082D1ADFC801E9E8F1E0808389
:1003900091838C01EEE03BC500917D0208950091B0
:1003A0007E020895E0E8F2E00081118108951CD5F5
:1003B00024970A831B8329833883CA01DB016D8854
:1003C0007E884F88588CED8CFE8CCF8CD8A0A9A04D
:1003D000BAA08BA09CA00A811B81EFE9F1E0008309
:1003E0001183E1EAF1E080839183A283B3830981E1
:1003F0000093A70108810093A5010C890093A60131
:10040000EBE8F1E060827182EDE8F1E04082518238
:10041000098D1A8DEFE8F1E0008311830B8D1C8D9F
:10042000E1E9F1E000831183E3E9F1E0E082F182A8
:10043000E5E9F1E0C082D182E7E9F1E0A082B18292
:10044000E9E9F1E0808291820DA11EA1EDE9F1E0E0
:10045000008311830FA118A5EBE9F1E0008311835C
:100460005A924A927A926A926091A6015091A5019D
:100470004091A701E1EAF1E00081118122813381FD
:1004800058D22496E5E2C1C4C5D20895D3D20895C6
:10049000B7D4D801C9019C018D01D2DD9801022F8A
:1004A000FD01E80FF91F008301968901012F10E07B
:1004B000FD01E80FF91F008301968C01E4E0B1C44F
:1004C000402F512FF9014083F901518302E010E0E0
:1004D000089596D4D801C9019C018D01BED2E4E0F3
:1004E000A0C45DDF089558DF08958AD4D801C901FA
:1004F0009C018D01E0D2E4E094C454DFE7E8F1E030
:1005000020813181021B130B0430104010F001E0F8
:10051000089500E0089546DFE7E8F1E020813181A9
:10052000021B130B083920E0120710F001E00895B8
:1005300000E0089537DFE7E8F1E020813181021B18
:10054000130B0530104010F001E0089500E008950D
:1005500029DFE7E8F1E00083118308954DD4D80145
:10056000C901843000E0900710F400E01FC0FD01D5
:10057000E80FF91F319750804424FD01E80FF91F5F
:100580003297008110E0402A512A9C0122503040CD
:100590008D0156DD38019C01225030408D0150DD27
:1005A0000415150511F401E001C000E0E8E035C4D0
:1005B00029D4009186010050A1F0025099F00A95CB
:1005C000E9F00A9509F450C00A9509F48FC00A951C
:1005D00009F4A3C00A9509F4A6C00A9509F4B3C0AA
:1005E000B8C0B7C0B5DF50DFE9E8F1E000E0008354
:1005F00000E0018303E000938601ABC074DF0023B9
:1006000061F120E230E0E9E8F1E000811181201B96
:10061000310BE9E8F1E040815181EBE8F1E0008144
:100620001181040F151F61DFC801813000E09007C0
:100630006CF0E9E8F1E000811181080F191F0083D7
:10064000118386DF04E00093860107C08F3F0FEF20
:10065000900719F402E0009386015DDF002319F092
:1006600002E00093860175C03EDF002349F120E2DD
:1006700030E0E9E8F1E000811181201B310BE9E86D
:10068000F1E040815181EBE8F1E000811181040F3C
:10069000151F2BDFC801813000E0900754F0E9E816
:1006A000F1E000811181080F191F0083118350DFD1
:1006B00007C08F3F0FEF900719F402E00093860107
:1006C0001CDF002391F0E9E8F1E020813181EBE8C3
:1006D000F1E00081118142DF002321F005E0009369
:1006E000860137C002E00093860133C0E9E8F1E0FB
:1006F00040815181EDE8F1E020813181EBE8F1E0CA
:100700000081118111DE012B21F006E000938601AA
:1007100020C002E0009386011CC0B6DE19DF07E0AE
:100720000093860116C006DF002399F0E9E8F1E0A6
:1007300020813181EDE8F1E00081118133DD08E0B5
:100740000093860106C0CDDE002319F002E000937D
:100750008601E2E068C300917A00102F14FF07C001
:1007600000917A00006100937A0001E0089500E0B2
:10077000089548D30091AD01005091F10A9519F008
:10078000095069F02DC000E00093AC010091AC016C
:1007900041D064D04CD00AE00093AD0121C0DBDF32
:1007A0000023F1F066D0C80164D0E1DC2091AC01F7
:1007B00030E0F901E255FE4F008B0091AC0103954A
:1007C0000093AC010091AC01083030F436D00091B8
:1007D000AC0120D02CD004C036D000E00093AD0195
:1007E000E2E021C3F8940895E0E8F2E0008111818D
:1007F0000F5F1F4F0083118308950FE300937E0066
:1008000007E000937A0000E000937B0000EC009387
:100810007C00089510917C00107F10937C00102FB5
:100820001F7020917C00212B20937C000895009163
:100830007A00006C00937A00089500917A000F739B
:1008400000937A00089500917A000F7300937A0064
:1008500000916400016000936400089500916400B9
:100860000E7F0093640000917A00006800937A0084
:1008700008952091780030E089013091790020E0DE
:10088000022B132B0895B8D218010A018885998587
:10089000AA85BB854C845D846F847888E3E5F2E0AB
:1008A00020823182E5E5F2E020833183E7E5F2E062
:1008B00000821182E9E5F2E060837183EBE5F2E00A
:1008C00080839183EDE5F2E0A083B183EFE5F2E070
:1008D000408251820E8500936102E2E6F2E060827E
:1008E0007182098900936402EFE5F2E000811181D1
:1008F000012BE9F04091610201E010E02ED2402F7F
:10090000EFE5F2E000811181F8010081042B008302
:100910004091640201E010E020D2402F4095E2E6D1
:10092000F2E000811181F801008104230083E2E1FB
:1009300074C25FD2C801D901942EA52E862E6B8475
:100940007C844D845E84E9E6F2E060827182E5E6B3
:10095000F2E0408251828C019D0140E150E060E074
:1009600070E003D2A801B90100E010E820E730E010
:100970001CD2A80141505040242FE5E5F2E000814F
:100980001181F80120838A01012F10E0202FE3E577
:10099000F2E000811181F80120830A2D075059F0FF
:1009A0000A9589F4EBE5F2E000811181F8010081FC
:1009B0000660008308C0EBE5F2E000811181F801D8
:1009C0000081046000830EE49016A1F005E4901607
:1009D00049F4EBE5F2E000811181F8010081006249
:1009E000008308C0EBE5F2E000811181F80100818D
:1009F0000063008301E0801659F002E0801641F4A4
:100A0000EBE5F2E000811181F801008108600083CC
:100A1000EFE000C2EBE6F2E000E0008300E00183DB
:100A200000E000937D0200E000937E0200E000936E
:100A30007F020895E5D1A7E5B2E0ED91FC91119711
:100A4000008100680083A9E5B2E0ED91FC91119767
:100A5000008100690083E4E0E4C1D2D1A801E5E6A9
:100A6000F2E040835183E7E6F2E020833183A7E59B
:100A7000B2E0ED91FC91119700810F770083A9E519
:100A8000B2E0ED91FC91119700810F760083A7E50C
:100A9000B2E0ED91FC911197008100660083A9E519
:100AA000B2E0ED91FC91119700810862008301E0B2
:100AB00010E0E4E0B6C1A2D1C801D90100E0009382
:100AC0007D0200917F02002319F00FEF1FEF3EC05F
:100AD000EBE6F2E0008111810A171B0718F00FEF17
:100AE0001FEF34C0EBE6F2E000811181012B19F118
:100AF00079DE00E010E0EBE6F2E0208131810217C0
:100B0000130758F4F801E359FD4F2081FC01E00F71
:100B1000F11F20830F5F1F4FEECFEBE6F2E0408026
:100B20005180EBE6F2E000E0008300E00183B2DAFE
:100B3000042D10E00BC0EBE6F2E000811181012BE7
:100B400019F400E010E002C000E010E0E6E067C148
:100B500057D1E7E6F2E000811181012BC9F4A9E544
:100B6000B2E0ED91FC91119700810F7D0083A7E524
:100B7000B2E0ED91FC911197008100640083A9E53A
:100B8000B2E0ED91FC9111970081006400831CC0DC
:100B9000A5E6B2E0ED91FC9111970081ADE5B2E0E0
:100BA000ED91FC9111970083E5E6F2E0008111815F
:100BB0000F5F1F4F00831183E7E6F2E00081118190
:100BC0000150104000831183E4E02BC119D1A9E545
:100BD000B2E0ED91FC9111970081077B0083A7E5BE
:100BE000B2E0ED91FC911197008100680083A9E5C6
:100BF000B2E0ED91FC91119700810069008301E062
:100C000000937E02E4E00DC1FBD0EBE6F2E0008150
:100C10001181003420E0120738F001E000937F02D8
:100C200001E000937D021DC0ADE5B2E0ED91FC91C5
:100C300011970081EBE6F2E020813181A9E6B2E074
:100C4000ED91FC911197E20FF31F0083EBE6F2E0C8
:100C5000008111810F5F1F4F0083118301E000931A
:100C60007D02E4E0DEC0FA93EA930A922A931A9393
:100C70000A932FB76DDF2FBF099119912991099020
:100C8000E991F9911895FA93EA930A921A930A93C3
:100C90001FB79CDF1FBF099119910990E991F99144
:100CA0001895FA93EA930A924A933A932A931A93DD
:100CB0000A934FB7A9DF4FBF099119912991399133
:100CC00049910990E991F991189508E30093B300CF
:100CD0000091B00002600093B0000091B100056087
:100CE0000093B100009170000260009370000895BD
:100CF0008A93FA93EA933A922A921A920A927A93F0
:100D00006A935A934A933A932A931A930A938FB702
:100D10006BDD8FBF099119912991399149915991B1
:100D2000699179910990199029903990E991F991F7
:100D300089911895CADF0895A5C003E80DBF01E0A9
:100D40000EBFC4E6D1E076D0002309F081D0AAD945
:100D500001D0F2CFF1CF000F111F4A95E2F70895AD
:100D6000169507954A95E2F708952224349F302D71
:100D7000259F300D169F300D079F300D249F202D8D
:100D8000310D159F200D311D069F200D311D149F23
:100D9000102D210D321D059F100D211D321D049FA8
:100DA000002D110D221D321D089500241124100163
:100DB000E0E2001F111F221F331FEA9572F0001C92
:100DC000111C221C331C041615062606370688F350
:100DD000041A150A260A370AECCFA001B1010095C2
:100DE0001095209530950895FA92EA92DA92CA9277
:100DF000BA92AA929A928A927A926A925A924A9253
:100E0000BA93AA939A938A930895FF84EE84DD841B
:100E1000CC84BB84AA84998488847F806E805D8022
:100E20004C80BB81AA8199818881F0E0EC0FFD1F85
:100E3000EF01089501E0089520E02D930150104046
:100E4000E1F7089525912D9301501040D9F70895A9
:100E50008AE390E0FC0105911491FC013296A59182
:100E6000B491FC01349625913491422F432B19F013
:100E7000F901E8DF01C0E0DF069610E08034910759
:060E800048F30895FFCFC6
:000D3A01B8
:00000001FF
