:10000000E1C52FC5189518951895189518956DC5C3
:100010001895189518951895189518951895189578
:1000200018957FC567C499C4CAC4189518951895C2
:10003000189518950000000000000000E70400007B
:10004000DA050A004D020800FD010602190230021D
:1000500034023702420249020401B40100003000B8
:100060008401820E5ED6F801C9012FEF3FEF03C075
:100070000A9539F40197082F092B71F00191202777
:1000800008E0A9015695479520FB9A018EF711E0EB
:10009000212710EA3127ECCF8901E2E049C660E070
:1000A00040E009C0542F550F550BF801E40FF51F20
:1000B0005081650F4395542F550F550B4217530729
:1000C00088F3062F0895A8950091600008610093B9
:1000D0006000009160000760009360001FD5789475
:1000E00000E00A9310E04ED01A9306EC50D002ECD8
:1000F0004ED061EC70E040EC50E024EC30E005ECD8
:1001000029D308E010E043D042D000E340D008E01B
:100110003ED038D005EE11E03AD000E00A930A93C1
:1001200005E312E034D005E112E031D001E00A939A
:1001300038E02EE440E855E260E070E000E010E0D6
:10014000CDD001E03CD000E00093BF0122EA32E0D4
:1001500002E912E043D4C8D1C3D240E350E020E02A
:1001600030E005EE11E0EDD540E150E020E030E078
:1001700003ED11E0E6D500E00093E40117D22AD1A7
:100180005AD2FCCF1A931A931A931A9308951A937A
:100190000A93089523E0073130E0130710F422E0BA
:1001A0000CC00F38130710F421E007C0013A130701
:1001B00028F00A32124008F420E0022F089500933C
:1001C000B4010895AED5C801BCD098018C01D3D03C
:1001D000E2E0AEC5A2D518012A01A0E0B0E0C90155
:1001E0000FC000E0F101E80FF91F0083119648E00D
:1001F00050E08D0112D543E0FAD4A01BB10B01965B
:100200008901040D151D8017910790F40C01021A45
:10021000130A48E050E0800100D5FB01E00FF11F18
:1002200050814A2F38D0E3D45023D9F201E0DACFFD
:10023000E6E07AC574D5413D17E0510710F000E1C2
:1002400018C0A5EBB1E01091BF01112311F000E03F
:1002500010C012E01093BE014D935C931197FD0105
:10026000648175817ED0FD01028313830EE00287D5
:1002700001E0E4E05BC5E5EBF1E0B80120815181EC
:10028000008510E00150104044E0B1D4422F9801A5
:10029000068117819FDF01E010E00895F801418198
:1002A0005091BD016081561751F45091BE01541711
:1002B00031F4423019F40D5F1F4FDDDFECCF2530F4
:1002C000304059F447FB4EF402810C3024F4102FD7
:1002D000110F110B08950EE010E0089520D5E8EC01
:1002E000F1E04083518362837383268334830C81DE
:1002F00005830D811E81A2ECB1E00D931C932F812B
:100300003885A9EBB1E02D933C934B855C85ABEB35
:10031000B1E04D935C934B895C89A4ECB1E04D93C3
:100320005C9342E04093BD013A932A931A930A9357
:1003300065815481468135D0228133811FD2E9E124
:10034000F5C4EDD4D801C9018DDEFD01E80FF91F18
:1003500000830196A80FB91F1C9301968C01E4E05D
:10036000E5C4FB01008311833283238354834583D7
:1003700006E010E008958BC291C2AFD04081518158
:10038000241B350B2017310710F001E0089500E021
:100390000895E0ECF1E00083118308957FD0E2EC52
:1003A000F1E0008111810895BCD4243040E034078D
:1003B00070F0F801E20FF31F329791818081225093
:1003C000304050DE0817190711F401E001C000E0C9
:1003D000E2E0AEC4A4D4E7EBF1E0E3DFE2ECF1E06D
:1003E000A081B181A00FB11F80E290E0801B910B32
:1003F0000091BF01E2E4F0E053C460D0E7EBF1E02C
:1004000000E00083018320D20BE045C000917A0216
:10041000002359F048D01CF057D00CE004C00F3F27
:100420001F4F19F401E10093BF0104E143D0D1F45F
:1004300034C000917A02002351F035D014F044D03A
:1004400006C00F3F1F4F19F401E10093BF0104E004
:1004500031D019F1A3DFA8DF002321F00DE01BC08C
:100460009DDF1CDF01E117C029D00FE014C005E0BB
:1004700021D099F013D0E9EBF1E093DFA3DEF1D1C5
:1004800000E109C000917B02002339F0F9D10AE0B4
:1004900002C0DFD100E00093BF0161CFE7EBF1E0E4
:1004A0002081318108959C018D0166DF013020E0BB
:1004B0001207089510E061DF00230895E2EBF2E0F7
:1004C0000081118166DFB8C108D020833183E6DF67
:1004D000200F311F208331830895E2EBF2E0208169
:1004E0003181E0ECF1E00895B9D201E00093D2014E
:1004F0000895F90100E0008301E0018302E902832D
:1005000003E010E0089509D42801D90100E00C931C
:1005100081E090E060E074E0202F302F330F330B48
:10052000220F331FE4E8F1E0E20FF31F3081329530
:10053000307F1181110F310F20E012E06695032EFC
:100540001124522F550F550B020E151EF001EB51C1
:10055000FE4F4081442309F0606823951A9571F796
:1005600003957A9519F0083144F4D6CFFD01E80FD0
:10057000F91F6083019608316CF29C018D018FDDBB
:10058000F2011081010FA80FB91F0C938C01E6E056
:10059000CBC3F8016081615919F0615B19F004C0A7
:1005A000A8DF01C0B0DFA8018A010895B8D3A0ED8B
:1005B000B1E00091D2010A9529F00A9559F008504E
:1005C00059F107C025D200E00D930C9302E000938F
:1005D000D2017EC0009188020023D9F327D20130D6
:1005E00020E01207A4F02D913C91200F311F3C9385
:1005F0002E93A901E0E9F2E020813181EEE8F2E0FA
:1006000000811181C6DF012B29F009E0E0CF0F3F07
:100610001F4FF9F600E0DBCF0091BD01023010F072
:1006200001E001C003950093BD0140E150E020E0EE
:1006300030E000DEEFCF73D30091E401002329F016
:100640000A9529F00A5051F043C0A89541C000E036
:100650000093E3016FD03ED00BE038C000917A00E8
:1006600004FF36C000917A00006100937A006DD0DB
:1006700091DD1091E30122E0129FE3EDF1E0E00D46
:10068000F11D1081101799F40181033070F0A5EE6F
:10069000B1E0A00DB11D117090961C9311960081D0
:1006A00001FB00E000F90C9305C0039502C0008334
:1006B00000E00183E3EDF1E000890395008B083051
:1006C00018F42DD007D004C02ED000E00093E40130
:1006D000E4E02CC30091E30110D01BC010E00895AA
:1006E0000FE300937E0007E000937A0000E00093A0
:1006F0007B0000EC00937C00089510917C00107F3B
:1007000010937C000F7010917C00102B10937C00D4
:10071000089500917A00006C00937A00089500918A
:100720007A000F73F9CFFBDF009164000160009342
:1007300064000895009164000E7F009364000091AE
:100740007A00006800937A00089500917800109173
:10075000790008950FD04CD1448355836683778305
:100760000C811D81008711870E811F8102871387ED
:10077000EEE0DCC2D4D2E6E5F2E00895CFD2842FD9
:10078000452E962FA6E5B2E04D815E81FD01408B9E
:10079000518B4F815885448755874481F5813CD0E2
:1007A0004681F78139D04085F185E42F40E04083D0
:1007B00044E04ED2A801B90100E010E021EE30E0A3
:1007C0004AD2980121503040FD010281F381E02F8F
:1007D0002083C0D011973083042D075029F00A954B
:1007E00031F424D0066002C021D0046000838E342E
:1007F00039F085341BD011F4006201C0006300831E
:10080000913019F40ED0077F04C0923019F409D04A
:1008100008600C93E9E089C2E42F40E04083FD01C9
:100820000895FD01A085B1850C910895FD01008515
:10083000F185E02F008108959EDF00E0028B038B9D
:1008400004A305A306A3089515D000680FD000697E
:100850001BC065D2ACE5B2E07DD000810F7600838D
:1008600014C008D0006602D008620EC00C93A681A6
:10087000B781DACF54D2E6E5F2E0A481B581D4CFD6
:10088000F9DF0F7DF3DF07790C93E4E04FC273DFEC
:10089000048715872687378701E020CF6BDF40E08C
:1008A00044A346A1442329F442895389421753079C
:1008B00018F00FEF1FEF1DC0452BC9F0F89480E032
:1008C00090E00AC0DF01A80FB91F54962C91D801FF
:1008D000A80FB91F2C930196228933898217930799
:1008E00088F3022F10E0128B138B789402C000E083
:1008F00010E0CBCFBA93AA93FA93EA933A932A9350
:100900001A930A933FB7A6E5B2E0FD010289138965
:10091000003420E0120718F001E006A30FC01A9679
:1009200019D01B972081FD01E00FF11F248BFD01E1
:10093000028913890F5F1F4F028B138B01E004A301
:100940003FBF0991199129913991E991F991A991A3
:10095000B9911895ED91FC910895BA93AA93D7D0C7
:10096000A6E5B2E0FD0106851785012B81F41696F8
:1009700022D00F7D0083EEDF159700810064008395
:10098000FD01A681B7810C9100640C9312C01C96E6
:1009900012D0E0DF1B970083FD01048515850F5FF2
:1009A0001F4F04871587068517850150104006875D
:1009B0001787A6D0CCCFED91FC9113973BCF0A932C
:1009C00001E000937B0209911895E2E0B1C1402F4C
:1009D000412B19F020FB0EF402D10895EEE8F2E06D
:1009E00007D004B1026104B90CB502600CBD0895D2
:1009F0000083118322833383089529980CB5006CFA
:100A00000CBD00E00EBD0895299A0CB50F73EECF12
:100A1000E3E8F2E000E000830183028303830583BF
:100A20000683078300870187048308957AD1E3E86A
:100A3000F2E000E005830185002321F480819181AB
:100A4000409718F00FEF1FEF08C000811181012BB4
:100A500011F0008101C000E010E0B7CF28D0E89A83
:100A600008951A930A931FB701E04A990DC00093A5
:100A70008D0200E000938A02C7DF19D001E00093E5
:100A80008B020AE05B980DC000938A02B6DF16D095
:100A90000091690002600093690001E00093E401A5
:100AA0005B9A0093D2011FBF09911991189506D046
:100AB0000091690003600093690008950091690046
:100AC0000C7FF9CF02E70093B3000091B000026001
:100AD0000093B0000091B10005600093B100009157
:100AE0007000026000937000089511D0E2EBF2E014
:100AF000008111810F5F1F4F0083118301D0189572
:100B00002FBF099119912991E991F9910895FA93CB
:100B1000EA932A931A930A932FB70895D3DF539A2F
:100B20000895FA93EA934A933A932A931A930A936D
:100B30004FB70091830210918402012B99F000912C
:100B40008302E0919002F0919102E00FF11F008189
:100B50000EBD0EB5209183023091840226D0E20FA3
:100B6000F31F04C00EB50EBD0EB51FD00083E0917B
:100B70008302F0918402709748F4E3E8F2E0008188
:100B800011810F5F1F4F0083118303C001E00093A9
:100B90008C0201E0009388024FBF099119912991BD
:100BA00039914991E991F9911895E0918E02F0916E
:100BB0008F020895402F412B19F020FB0EF40FD027
:100BC0000895EEC003E80DBF01E00EBFC4E6D1E01A
:100BD000B6D0002309F0CAD076DA06D0F2CF202FA3
:100BE000212B09F0DED00895ECCF000F111F4A959C
:100BF000E2F7089500241124E0E1001F111FEA9597
:100C000042F0001C111C04161506B8F3041A150A4C
:100C1000F4CFA001009510950895FF27552312F4F5
:100C2000F1600ED0112312F4F09506D0E3DFF0FD51
:100C300003D0F1FD05C00895119501951040089568
:100C40005195419550400895000F111F221F331FE9
:100C50004A95D2F70895002411241001E0E2001F04
:100C6000111F221F331FEA9572F0001C111C221C59
:100C7000331C041615062606370688F3041A150ACF
:100C8000260A370AECCFA001B101009510952095F6
:100C9000309508954591159011FA25903590089555
:100CA000F9DF041B10E000C020E030E000C0B8F025
:100CB00010FC17C045910590E00FF11F04171005B7
:100CC00040E02407340758F436F404910024F1017D
:100CD000E01BF0090994E00FF11F25903590F10118
:100CE000099411F4D6F7F1CF31960EF0319650E019
:100CF00060E070E045914B3F48F089F34F3F29F0A9
:100D00004E3F11F07591659155914591041B150B5E
:100D1000260B370B39F318F3E7CF5A924A92BA935E
:100D2000AA939A938A9308955D804C80BB81AA818F
:100D300099818881F0E0EC0FFD1FEF01089501E03B
:100D40000895F80103C0219341505040342F352BB2
:100D5000D1F7089520E02D9301501040E1F7089558
:100D600025912D9301501040D9F7089588E590E022
:100D7000FC0105911491FC013296A591B491FC01FE
:100D8000349625913491422F432B19F0F901E8DF75
:100D900001C0E0DF069610E08436910748F308951D
:100DA000FFCFBDDF202F212B09F464C0025010407B
:100DB000F80140815181443020E0520708F45AC0C4
:100DC00024EB32E0D9011296ED91FC916E2F6F2B3E
:100DD00019F00E171F0738F4D8011296ED93FC9303
:100DE000F90124C0FB0148D019F060177107D0F356
:100DF00000801180BF01600D711D06171707D0F12B
:100E00006017710739F48001040F151F00831183E7
:100E10008F010EC031D031F00801040E151E60158F
:100E2000710540F1D80112966D937C930283138370
:100E3000F801A281B3814A2F4B2BE1F0408151810F
:100E4000B801640F751F6A177B07A1F4F90120E050
:100E500020832183FD0120813181F801408151816E
:100E6000420F531F40835183FD0122813381F801DA
:100E700022833383E4E05ACF62817381062E072AEE
:100E800008950006000700000001000200030004AE
:100E9000000501060107010001010102010301042F
:100EA0000105020602070200020102020203020417
:020EB000020539
:000BC40130
:00000001FF
