:1000000002C649C51895189518951895189587C56D
:100010001895189518951895189518951895189578
:10002000189599C581C4B3C4E4C41895189518955A
:100030001895189500000000000000000105000060
:10004000FB050A005302080003020C021F023602DD
:100050003A023D0248024F020501B501000031009D
:100060008401C40E7FD6F801C9012FEF3FEF03C012
:100070000A9539F40197082F092B71F00191202777
:1000800008E0A9015695479520FB9A018EF711E0EB
:10009000212710EA3127ECCF8901E2E06AC660E04F
:1000A00040E009C0542F550F550BF801E40FF51F20
:1000B0005081650F4395542F550F550B4217530729
:1000C00088F3062F0895A8950091600008610093B9
:1000D00060000091600007600093600039D578945B
:1000E00000E00A9310E054D01A9306EC56D002ECCC
:1000F00054D061EC70E040EC50E024EC30E005ECD2
:1001000043D308E010E049D048D000E346D008E0EF
:1001100044D03ED006EE11E040D000E00A930A93AE
:1001200006E312E03AD006E112E037D001E00A938C
:1001300038E02EE440E855E260E070E000E010E0D6
:10014000D3D001E042D000E00093C00124EA32E0C5
:1001500004E912E05DD4CED104E200938F02DAD23A
:1001600040E350E020E030E006EE11E00BD640E145
:1001700050E020E030E004ED11E004D601E000930F
:10018000E50100E00093B4012BD22AD16ED2FCCF5E
:100190001A931A931A931A9308951A930A93089527
:1001A00023E0073130E0130710F422E00CC00F38D1
:1001B000130710F421E007C0013A130728F00A32B0
:1001C000124008F420E0022F08950093B50108952D
:1001D000C9D5C801BCD098018C01D3D0E2E0C9C513
:1001E000BDD518012A01A0E0B0E0C9010FC000E0B0
:1001F000F101E80FF91F0083119648E050E08D01EE
:100200002DD543E015D5A01BB10B01968901040D36
:10021000151D8017910790F40C01021A130A48E08B
:1002200050E080011BD5FB01E00FF11F50814A2FE8
:1002300038D0FED45023D9F201E0DACFE6E095C5FC
:100240008FD5413D17E0510710F000E118C0A6EB33
:10025000B1E01091C001112311F000E010C012E0D4
:100260001093BF014D935C931197FD0164817581DB
:100270007ED0FD01028313830EE0028701E0E4E0FB
:1002800076C5E6EBF1E0B80120815181008510E0F0
:100290000150104044E0CCD4422F980106811781D0
:1002A0009FDF01E010E00895F80141815091BE0107
:1002B0006081561751F45091BF01541731F4423008
:1002C00019F40D5F1F4FDDDFECCF2530304059F4BE
:1002D00047FB4EF402810C3024F4102F110F110B48
:1002E00008950EE010E008953BD5E9ECF1E040837D
:1002F000518362837383268334830C8105830D814C
:100300001E81A3ECB1E00D931C932F813885AAEBDD
:10031000B1E02D933C934B855C85ACEBB1E04D9304
:100320005C934B895C89A5ECB1E04D935C9342E012
:100330004093BE013A932A931A930A93658154819C
:10034000468135D02281338133D2E9E110C508D509
:10035000D801C90187DEFD01E80FF91F008301966E
:10036000A80FB91F1C9301968C01E4E000C5FB01A6
:1003700000831183328323835483458306E010E096
:1003800008959FC2A5C2AFD040815181241B350B77
:100390002017310710F001E0089500E00895E1EC26
:1003A000F1E00083118308957FD0E3ECF1E0008158
:1003B00011810895D7D4243040E0340770F0F8015B
:1003C000E20FF31F329791818081225030404ADE44
:1003D0000817190711F401E001C000E0E2E0C9C408
:1003E000BFD4E8EBF1E0E3DFE3ECF1E0A081B18121
:1003F000A00FB11F80E290E0801B910B0091C00123
:10040000E2E4F0E06EC460D0E8EBF1E000E00083ED
:10041000018334D20BE045C000917B02002359F0E8
:1004200048D01CF057D00CE004C00F3F1F4F19F408
:1004300001E10093C00104E143D0D1F434C0009144
:100440007B02002351F035D014F044D006C00F3F9A
:100450001F4F19F401E10093C00104E031D019F1FC
:10046000A3DFA8DF002321F00DE01BC09DDF1CDF10
:1004700001E117C029D00FE014C005E021D099F0A8
:1004800013D0EAEBF1E093DFA3DE05D200E109C06F
:1004900000917C02002339F00DD20AE002C0F3D1B2
:1004A00000E00093C00161CFE8EBF1E020813181F1
:1004B00008959C018D0166DF013020E01207089548
:1004C00010E061DF00230895E4EBF2E00081118188
:1004D00066DFCCC108D020833183E6DF200F311FD7
:1004E000208331830895E4EBF2E020813181E1EC57
:1004F000F1E00895CDD201E00093D3010895F90110
:1005000000E0008301E0018302E9028303E010E0E0
:10051000089524D42801D9010091B4010D3000E0E0
:100520000C9380F4F90104E20183E4E8F1E000A90E
:10053000039500AB0D3018F000E000938F0202E04D
:1005400010E03FC081E090E060E074E0202F302FA9
:10055000330F330B220F331FE4E8F1E0E20FF31FF8
:1005600030813295307F1181110F310F20E012E080
:100570006695032E1124522F550F550B020E151E92
:10058000F001EA51FE4F4081442309F06068239551
:100590001A9571F703957A9519F0083144F4D6CF7E
:1005A000FD01E80FF91F6083019608316CF29C0190
:1005B0008D0175DDF2011081010FA80FB91F0C9399
:1005C0008C01E6E0D2C3F8016081615919F0615BEA
:1005D00019F004C094DF01C09CDFA8018A010895CE
:1005E000BFD3A1EDB1E00091D3010A9529F00A959E
:1005F00059F0085059F107C025D200E00D930C9333
:1006000002E00093D3017EC0009189020023D9F358
:1006100027D2013020E01207A4F02D913C91200F49
:10062000311F3C932E93A901E2E9F2E02081318150
:10063000E0E9F2E000811181C6DF012B29F009E039
:10064000E0CF0F3F1F4FF9F600E0DBCF0091BE0176
:10065000023010F001E001C003950093BE0140E1BB
:1006600050E020E030E0ECDDEFCF7AD30091E501FF
:10067000002329F00A9529F00A5051F043C0A895AB
:1006800041C000E00093E4016FD03ED00BE038C0E1
:1006900000917A0004FF36C000917A000061009357
:1006A0007A006DD07DDD1091E40122E0129FE4ED2F
:1006B000F1E0E00DF11D1081101799F40181033074
:1006C00070F0A6EEB1E0A00DB11D117090961C93D4
:1006D0001196008101FB00E000F90C9305C0039521
:1006E00002C0008300E00183E4EDF1E0008903959E
:1006F000008B083018F42DD007D004C02ED000E0B5
:100700000093E501E4E033C30091E40110D01BC085
:1007100010E008950FE300937E0006E000937A0056
:1007200000E000937B0000EC00937C0008951091A2
:100730007C00107F10937C000F7010917C00102BB8
:1007400010937C00089500917A00006C00937A0069
:10075000089500917A000F73F9CFFBDF00916400D8
:100760000160009364000895009164000E7F00937F
:10077000640000917A00006800937A000895009167
:1007800078001091790008950FD04CD1448355839F
:10079000668377830C811D81008711870E811F81FD
:1007A00002871387EEE0E3C2DBD2E7E5F2E00895CB
:1007B000D6D2842F452E962FA7E5B2E04D815E81DB
:1007C000FD01408B518B4F8158854487558744816B
:1007D000F5813CD04681F78139D04085F185E42F01
:1007E00040E0408344E055D2A801B90100E010E0A8
:1007F00021EE30E051D2980121503040FD010281BC
:10080000F381E02F2083C0D011973083042D07504F
:1008100029F00A9531F424D0066002C021D004608A
:1008200000838E3439F085341BD011F4006201C08E
:1008300000630083913019F40ED0077F04C092301A
:1008400019F409D008600C93E9E090C2E42F40E06D
:100850004083FD010895FD01A085B1850C910895A7
:10086000FD010085F185E02F008108959EDF00E005
:10087000028B038B04A305A306A3089515D000687B
:100880000FD000691BC06CD2ADE5B2E07DD0008115
:100890000F76008314C008D0006602D008620EC034
:1008A0000C93A681B781DACF5BD2E7E5F2E0A481B1
:1008B000B581D4CFF9DF0F7DF3DF07790C93E4E046
:1008C00056C273DF048715872687378701E020CF5C
:1008D0006BDF40E044A346A1442329F442895389B5
:1008E0004217530718F00FEF1FEF1DC0452BC9F03B
:1008F000F89480E090E00AC0DF01A80FB91F549679
:100900002C91D801A80FB91F2C9301962289338905
:100910008217930788F3022F10E0128B138B7894C1
:1009200002C000E010E0CBCFBA93AA93FA93EA9307
:100930003A932A931A930A933FB7A7E5B2E0FD01D1
:1009400002891389003420E0120718F001E006A3A1
:100950000FC01A9619D01B972081FD01E00FF11FDF
:10096000248BFD01028913890F5F1F4F028B138BAC
:1009700001E004A33FBF0991199129913991E991AF
:10098000F991A991B9911895ED91FC910895BA93B7
:10099000AA93D7D0A7E5B2E0FD0106851785012B04
:1009A00081F4169622D00F7D0083EEDF159700812B
:1009B00000640083FD01A681B7810C9100640C9353
:1009C00012C01C9612D0E0DF1B970083FD01048546
:1009D00015850F5F1F4F0487158706851785015002
:1009E000104006871787A6D0CCCFED91FC911397C6
:1009F0003BCF0A9301E000937C0209911895E2E055
:100A0000B8C1402F412B19F020FB0EF409D10895F5
:100A1000E0E9F2E007D004B1026104B90CB502606C
:100A20000CBD089500831183228333830895299890
:100A30000CB5006C0CBD00E00EBD0895299A0CB5F4
:100A40000F73EECFE4E8F2E000E00083018302835D
:100A50000383058306830783008701870483089542
:100A600081D1E4E8F2E000E005830185002321F470
:100A700080819181409718F00FEF1FEF08C000812F
:100A80001181012B11F0008101C000E010E0B7CF0F
:100A900028D0E89A08951A930A931FB701E04A995B
:100AA0000DC000938E0200E000938B02C7DF19D0C7
:100AB00001E000938C020AE05B980DC000938B026A
:100AC000B6DF16D00091690002600093690001E072
:100AD0000093E5015B9A0093D3011FBF099119911F
:100AE000189506D00091690003600093690008958D
:100AF000009169000C7FF9CF02E70093B3000091E9
:100B0000B00002600093B0000091B1000560009356
:100B1000B10000917000026000937000089511D040
:100B2000E4EBF2E0008111810F5F1F4F008311831E
:100B300001D018952FBF099119912991E991F99147
:100B40000895FA93EA932A931A930A932FB7089574
:100B5000D3DF539A0895FA93EA934A933A932A93E8
:100B60001A930A934FB70091840210918502012BCA
:100B700099F000918402E0919202F0919302E00FCB
:100B8000F11F00810EBD0EB52091840230918502C7
:100B90002DD0E20FF31F0BC00EB5013921F00091EB
:100BA0008F02002309F40EB50EBD0EB51FD00083D1
:100BB000E0918402F0918502709748F4E4E8F2E055
:100BC000008111810F5F1F4F0083118303C001E07B
:100BD00000938D0201E0009389024FBF09911991A2
:100BE000299139914991E991F9911895E0919002F3
:100BF000F09191020895402F412B19F020FB0EF443
:100C00000FD00895EEC003E80DBF01E00EBFC4E6AB
:100C1000D1E0B6D0002309F0CAD055DA06D0F2CF21
:100C2000202F212B09F0DED00895ECCF000F111FEB
:100C30004A95E2F7089500241124E0E1001F111FF6
:100C4000EA9542F0001C111C04161506B8F3041AAC
:100C5000150AF4CFA001009510950895FF2755239C
:100C600012F4F1600ED0112312F4F09506D0E3DFF8
:100C7000F0FD03D0F1FD05C00895119501951040D8
:100C800008955195419550400895000F111F221F5E
:100C9000331F4A95D2F70895002411241001E0E291
:100CA000001F111F221F331FEA9572F0001C111C38
:100CB000221C331C041615062606370688F3041A70
:100CC000150A260A370AECCFA001B101009510954C
:100CD0002095309508954591159011FA25903590FD
:100CE0000895F9DF041B10E000C020E030E000C0F0
:100CF000B8F010FC17C045910590E00FF11F0417E4
:100D0000100540E02407340758F436F40491002419
:100D1000F101E01BF0090994E00FF11F25903590D7
:100D2000F101099411F4D6F7F1CF31960EF0319616
:100D300050E060E070E045914B3F48F089F34F3F51
:100D400029F04E3F11F07591659155914591041B25
:100D5000150B260B370B39F318F3E7CF5A924A924B
:100D6000BA93AA939A938A9308955D804C80BB812D
:100D7000AA8199818881F0E0EC0FFD1FEF010895B1
:100D800001E00895F80103C0219341505040342FF1
:100D9000352BD1F7089520E02D9301501040E1F755
:100DA000089525912D9301501040D9F7089588E5B5
:100DB00090E0FC0105911491FC013296A591B4914B
:100DC000FC01349625913491422F432B19F0F901FF
:100DD000E8DF01C0E0DF069610E08436910748F3B3
:100DE0000895FFCFBDDF202F212B09F464C00250EE
:100DF0001040F80140815181443020E0520708F44E
:100E00005AC026EB32E0D9011296ED91FC916E2F7B
:100E10006F2B19F00E171F0738F4D8011296ED93B7
:100E2000FC93F90124C0FB0148D019F06017710749
:100E3000D0F300801180BF01600D711D06171707E8
:100E4000D0F16017710739F48001040F151F00837A
:100E500011838F010EC031D031F00801040E151E30
:100E60006015710540F1D80112966D937C93028351
:100E70001383F801A281B3814A2F4B2BE1F040810B
:100E80005181B801640F751F6A177B07A1F4F9013E
:100E900020E020832183FD0120813181F801408100
:100EA0005181420F531F40835183FD0122813381C1
:100EB000F80122833383E4E05ACF62817381062EE6
:100EC000072A089500060007000000010002000341
:100ED00000040005010601070100010101020103F0
:100EE00001040105020602070200020102020203D8
:050EF0000204020500F0
:000C0601ED
:00000001FF
