:1000000066C6E7C5189518951895189518953AC6B7
:100010001895189518951895189518951895189578
:100020001895189578C559C568C5189518951895E7
:1000300018951895000000000000310184010000AF
:100040006FEF7FEF02C021503040422F432BA1F0D1
:10005000F80141918F01642748E001C04A9544238B
:1000600091F30B011694079460FBB001BEF751E0C9
:10007000652750EA7527F2CF8B01012F10E0762F0C
:1000800017270895A8950895789408950093C501B9
:10009000089500938801089517D6F6DF00E00A93CB
:1000A00010E01A931A931A931A931A9306EC1A9360
:1000B0000A9302EC1A930A9361EC70E040EC50E072
:1000C00024EC30E005EC97D308E010E01A930A9393
:1000D0001A930A9300E11A930A931A930A9302E07F
:1000E00012E01A930A9302EF11E01A930A9302EEB8
:1000F00011E01A930A9302ED11E01A930A9302E3B6
:1001000012E01A930A9302E112E01A930A9301E0B3
:100110000A9338E02EE440E855E260E070E0E0EB5E
:10012000F2E000811181E1D001E027D037D102E077
:10013000B0DF2EE932E00EE812E0FFD460D219D32E
:1001400000E0A4DF9BD299D1CBD29CDFFBCF23E090
:10015000073130E0130710F422E00DC00F38130709
:1001600010F421E008C0013A130730F00A3232E0FF
:10017000130708F420E0022F0895009386010895E4
:10018000EAD5C8010DD198018C0120D1E2E0ECC57F
:10019000E0D5822FDA019D01106812D1A00FB11FA6
:1001A0008C930F5F1F4FE4E0DDC5D2D508011A0123
:1001B00050E04424A0E0B0E08D819E8102C04394D1
:1001C0001196A217B307D0F48001F80131960F0100
:1001D000F101E00FF11F0081002329F001E010E0A0
:1001E000442D85D5502B07E0401649F7FB01E80F59
:1001F000F91F5083019650E04424E2CF442029F0B7
:10020000680F791FFB01508301968C01E7E0A9C5B7
:100210009CD5F801C9010081118172806624238177
:10022000622AB481A0E02581A22B2B2B21F0A13DD5
:1002300027E0B20718F0AC0123E00CC0EFE8F1E0D2
:1002400022813381A3014A0F5B1F2417350720F455
:10025000AC0122E09DDF1BC09C01B2D09801FC01E3
:10026000E00FF11F43E08D0147D5A8010A2F077069
:1002700009F0439540832F5F3F4F3A932A93BC0187
:10028000EFE8F1E0408151819D0183018EDF98010B
:100290008901E8E063C5F80100811181602F762FA4
:1002A000770F770B0090860111246015710529F0F6
:1002B000002319F000E010E00895113019F48F01C7
:1002C000A7DF03C0A90121E063DFE4E8F1E00083D8
:1002D0001183089500917D02089500917E02089592
:1002E000EEEAF2E000811181089533D5EFE9F1E003
:1002F000048315834083518362837383208736830D
:100300000C8107830D811E81ABE8B1E00D931C9336
:100310002F813885ADE8B1E02D933C9349855A850E
:10032000AFE8B1E04D935C934B855C85A3E9B1E008
:100330004D935C934D855E85A5E9B1E04D935C934B
:100340004F855889A7E9B1E04D935C9349895A8953
:10035000A1E9B1E04D935C934B895C89A9E9B1E0D7
:100360004D935C934D895E89ADE9B1E04D935C930B
:100370004F89588DABE9B1E04D935C933A932A9342
:100380001A930A93678156814085008111812281E9
:10039000338168D2E9E1E6C4B5D20895BCD20895AC
:1003A000D8D4D801C9014CDEFD01E80FF91F008344
:1003B0000196A80FB91F1C9301968C01E4E0D2C4EA
:1003C000F9010083118302E010E00895B3D208958B
:1003D00084DF08957FDF0895D4D2089581DFE9E8AE
:1003E000F1E020813181021B130B0430104010F02A
:1003F00001E0089500E0089573DFE9E8F1E020816D
:100400003181021B130B083920E0120710F001E0C4
:10041000089500E0089564DFE9E8F1E0208131818A
:10042000021B130B0530104010F001E0089500E0AE
:10043000089556DFE9E8F1E000831183089587D439
:10044000C801243000E03007A8F0FC01E20FF31FE0
:100450003297B181A0E00081A02B225030402901C9
:100460008C01EEDD92018C01EBDD0A171B0711F404
:1004700001E001C000E0E6E073C400918801025091
:1004800091F00A95C9F00A9509F444C00A9509F457
:100490007BC00A9509F489C00A9509F48AC00A95B7
:1004A00009F495C00895C5DF77DFE4E8F1E000E0E6
:1004B0000083018303E065C08DDF002331F120E27A
:1004C00030E0E4E8F1E000811181201B310B408134
:1004D0005181EBE8F1E000811181040F151F7CDFF1
:1004E000013020E012075CF0E4E8F1E02081318186
:1004F000200F311F208331839CDF04E004C00F3FB5
:100500001F4F19F402E00093880176DF002309F001
:1005100061C008955FDF002329F120E230E0E4E8C4
:10052000F1E000811181201B310B40815181EBE80A
:10053000F1E000811181040F151F4EDF013020E032
:10054000120754F0E4E8F1E020813181200F311FDF
:10055000208331836EDF06C00F3F1F4F19F402E086
:10056000009388013BDF0023C1F1E4E8F1E0208142
:100570003181EBE8F1E00081118161DF002351F16D
:1005800005E0009388010895E4E8F1E0408151819D
:10059000EDE8F1E020813181EBE8F1E000811181AB
:1005A0007ADE012BB9F006E0ECCFF6DE42DF07E0A1
:1005B000E8CF31DF002389F0E4E8F1E020813181E8
:1005C000EDE8F1E000811181DBDD08E0DACF00DF4A
:1005D000002319F002E000938801089500917A0049
:1005E000102F14FF07C000917A00006100937A0079
:1005F00001E0089500E00895009185020895DDD29C
:1006000001E00093AB010895E9EAF1E000E0008326
:100610000183ACD20895F0DF0895B6D20895F901B0
:10062000E40FF51F01E900834F5F5F4FF901E40F0D
:10063000F51F01E000834F5F5F4F240F351FF90165
:1006400002E900834F5F5F4F8A01089584D38901D7
:10065000CA014AE050E026EC31E08FD38C01E2E0A1
:1006600083C3F8016081615919F0615B19F004C01E
:10067000D6DF01C0EBDFA8018A0108956AD3A9EA99
:10068000B1E00091AB01015019F00A9521F026C0AC
:10069000BBDF02E021C0BFDF002301F1BEDF01307C
:1006A00020E01207ACF02D913C91200F311F3C93BC
:1006B0002E934D915C91ECE8F2E020813181EAE8E3
:1006C000F2E000811181CDDF012B29F009E004C0A7
:1006D0000F3F1F4F19F400E00093AB01E4E042C369
:1006E0000091C501015019F0095059F0089500E03A
:1006F0000093C4014BD06DD055D00AE00093C501E2
:1007000008956CDF0023F1F06FD06ED020DD2091D2
:10071000C40130E0ECEAF1E0E20FF31F008B00913E
:10072000C40103950093C4010091C401083030F462
:100730003FD00091C4012AD035D008953FD000E0C9
:100740000093C501089501E0009388020895F8948C
:100750000895EEEAF2E0008111810F5F1F4F0083E0
:10076000118308955B9808955B9A08950093AB01F7
:1007700008950FE300937E0007E000937A0000E005
:1007800000937B0000EC00937C00089510917C00A6
:10079000107F10937C000F7010917C00102B109331
:1007A0007C00089500917A00006C00937A0008950F
:1007B00000917A000F7300937A00089500917A00F7
:1007C0000F7300937A00009164000160009364004D
:1007D0000895009164000E7F0093640000917A00F8
:1007E000006800937A0008950091780010E030913D
:1007F0007900132B0895ADD2E3E5F2E00083118375
:100800002283338344835583668377830C811D81E0
:10081000008711870E811F8102871387088519853C
:10082000048715870A85008F0B851C850687178727
:100830000D85018FA485B5850A2F0B2B89F0408D7E
:1008400001E010E054D21C91102B1C93418D01E06B
:1008500010E04DD20095A685B7851C9110231C93FE
:10086000EEE080C275D2842F452E962FA3E5B2E02C
:100870004D815E81FD01448B558B4F815885408BA6
:10088000518B44E040D2A801B90100E010E820E714
:1008900030E03CD2980121503040FD0102811381AB
:1008A000F8012083ED91FC9111973083042D0750BE
:1008B00049F00A9571F4FD0100851185F801008168
:1008C000066006C0FD0100851185F8010081046005
:1008D00000838E3459F0FD01008511858534F801BF
:1008E000008111F4006201C000630083913041F087
:1008F000923031F4FD01A085B1850C9108600C9314
:10090000E9E02FC2E3E5F2E000E0068B078B02A7E7
:1009100003A704A708951DD2E3E5F2E0A481B58101
:100920000C9100680C93A681B7810C9100690C931F
:10093000E4E018C20ED2A3E5B2E0FD01008B118BFA
:10094000228B338B1496ED91FC91159700810F77D4
:1009500000831696ED91FC91179700810F76008326
:100960001496ED91FC911597008100660083FD01BE
:10097000A681B7810C9108620C9301E010E0E4E0DD
:10098000F1C1E7D1C801A3E5B2E000E000937D0228
:1009900000917F02002331F4FD01068917890217B7
:1009A000130718F00FEF1FEF1EC0012BD1F0CFDEA1
:1009B00000E010E009C0E00FF11F228DFC01E00F04
:1009C000F11F20830F5F1F4FFD0126893789021712
:1009D000130788F3822F00E0068B078B55DB082F67
:1009E00001C000E010E0E4E0BDC1B3D1A3E5B2E096
:1009F000FD0102891389012BA9F41696ED91FC9152
:100A0000179700810F7D00831496ED91FC91159747
:100A1000008100640083FD01A681B7810C91006410
:100A20000C9317C05096ED91FC91519700811A9646
:100A3000ED91FC911B970083FD01008911890F5FE7
:100A40001F4F008B118B0289138901501040028BBC
:100A5000138BE4E087C17DD1A3E5B2E01696ED915A
:100A6000FC9117970081077B00831496ED91FC9110
:100A70001597008100680083FD01A681B7810C9164
:100A800000690C9301E000937E02E4E06BC161D148
:100A9000A3E5B2E0FD0106891789003420E01207C2
:100AA00020F001E000937F0214C01A96ED91FC91B2
:100AB0001B9720815496ED91FC915597E00FF11F03
:100AC0002083FD01068917890F5F1F4F068B178B47
:100AD00001E000937D02E4E045C1FA93EA930A92B3
:100AE0002A931A930A932FB780DF2FBF0991199188
:100AF00029910990E991F9911895FA93EA930A924C
:100B00001A930A931FB7A7DF1FBF09911991099084
:100B1000E991F9911895FA93EA930A923A932A93F4
:100B20001A930A933FB7B3DF3FBF099119912991F7
:100B300039910990E991F9911895EAE8F2E000837A
:100B400011832283338304B1026104B90CB50260BE
:100B50000CBD089529980CB5006C0CBD00E00EBDCD
:100B60000895299A0CB50F730CBD0895E0E8F2E0E2
:100B700000E00083018302830383058306830783E8
:100B80000087018704830895E6D0E0E8F2E000E002
:100B900005830185002321F480819181409718F01D
:100BA0000FEF1FEF08C000811181012B11F00081B0
:100BB00001C000E010E0E2E0D7C0009169000C7FC6
:100BC0000093690000916900036000936900E89A4E
:100BD00008958A93FA93EA933A922A921A920A9281
:100BE0007A936A935A934A933A932A931A930A935D
:100BF0008FB74A9913C001E00093B402B2DF0091AD
:100C000069000C7F00936900009169000360009304
:100C1000690099DD00E0AADDA7DD10C09BDF00912F
:100C200069000C7F009369000091690002600093E5
:100C3000690001E09BDD01E029DA94DD8FBF0991B5
:100C40001991299139914991599169917991099015
:100C5000199029903990E991F9918991189508E3B3
:100C60000093B3000091B00002600093B0000091C7
:100C7000B10005600093B100009170000260009324
:100C8000700008958A93FA93EA933A922A921A92FC
:100C90000A927A936A935A934A933A932A931A93AD
:100CA0000A938FB756DD8FBF099119912991399118
:100CB00049915991699179910990199029903990A8
:100CC000E991F99189911895CADF08958AC003E8DE
:100CD0000DBF01E00EBFC4E6D1E04DD0002309F006
:100CE00066D0DAD901D0F2CFF1CF000F111F4A95AB
:100CF000E2F70895169507954A95E2F70895000FD3
:100D0000111F221F331F4A95D2F708950024112482
:100D10001001E0E2001F111F221F331FEA9572F03D
:100D2000001C111C221C331C04161506260637064F
:100D300088F3041A150A260A370AECCFA001B1017C
:100D4000009510952095309508957A926A925A925E
:100D50004A92BA93AA939A938A9308957F806E8059
:100D60005D804C80BB81AA8199818881F0E0EC0F85
:100D7000FD1FEF01089501E00895EBDFD80106C0E3
:100D8000F90161919F016D9341505040642F652B93
:100D9000B9F7E4E0E7CF20E02D9301501040E1F7F0
:100DA000089525912D9301501040D9F708958AE3B5
:100DB00090E0FC0105911491FC013296A591B4914B
:100DC000FC01349625913491422F432B19F0F901FF
:100DD000E8DF01C0E0DF069610E08034910748F3B9
:040DE0000895FFCFA4
:000CCE0125
:00000001FF
