:10000000B7C511C5189518951895189518954DC52B
:100010001895189518951895189518951895189578
:1000200018955DC549C47BC4ACC41895189518953E
:10003000189518950000000000000000C904000099
:10004000B0050A0035020800E301EC01FF011602C9
:100050001A021E0229023102F800B4010000300029
:100060008401E00D09D6F801C9012FEF3FEF03C06D
:100070000A9539F40197082F092B71F00191202777
:1000800008E0A9015695479520FB9A018EF711E0EB
:10009000212710EA3127ECCF8901E2E0F3C560E0C7
:1000A00040E009C0542F550F550BF801E40FF51F20
:1000B0005081650F4395542F550F550B4217530729
:1000C00088F3062F08950AD5789400E00A9310E08B
:1000D00041D01A9306EC43D002EC41D061EC70E0C1
:1000E00040EC50E024EC30E005EC1AD308E010E0DE
:1000F00036D035D000E133D008E031D02BD009EF35
:1001000011E02DD000E00A930A9309E212E027D013
:1001100009E012E024D001E00A9338E02EE440E840
:1001200055E260E070E000E010E0BED001E02FD0CA
:1001300000E00093BD0126E932E006E812E030D489
:10014000BBD1B4D200E00093F80131D229D175D2ED
:10015000A895FBCF1A931A931A931A9308951A939A
:100160000A93089523E0073130E0130710F422E0EA
:100170000CC00F38130710F421E007C0013A130731
:1001800028F00A32124008F420E0022F089500936C
:10019000B401089571D5C801BAD098018C01D1D0AD
:1001A000E2E070C567D5413D17E0510710F000E16E
:1001B00018C0A5EBB1E01091BD01112311F000E0D2
:1001C00010C012E01093BC014D935C931197FD0198
:1001D00064817581ACD0FD01028313830EE000873A
:1001E00001E0E4E04DC545D51801A0E060E0E5EB95
:1001F000F1E08081918103C05A9571F4A39530D0CC
:100200008C01169507956017710720F5B0E0F10194
:10021000EA0FFB1FB08154E0442430E022E0B0FB41
:1002200026F41BD0432FB9D4402AB69533952A958E
:10023000B1F7EBECF1E014D0E60FF71F0091BB0132
:1002400018E0019FE00DF11D4082639509D0681709
:10025000790790F202D0E5E012C501E010E00895C0
:10026000762F770F770B0895F80141815091BB01EC
:100270006081561751F45091BC01541731F442304B
:1002800019F40D5F1F4FAFDFE8CF2530304059F430
:1002900047FB4EF402810C3024F4102F110F110B88
:1002A00008950EE010E00895E5D4E8ECF1E0408315
:1002B000518362837383268334830C8105830D818C
:1002C0001E81A0ECB1E00D931C932F813885A9EB22
:1002D000B1E02D933C934B855C85A2ECB1E04D934E
:1002E0005C934B895C89A4ECB1E04D935C9342E054
:1002F0004093BB013A932A931A930A9365815481E0
:10030000468135D0228133811FD2E9E1B9C4B2D40C
:10031000D801C901A7DEFD01E80FF91F008301968E
:10032000A80FB91F1C9301968C01E4E0A9C4FB013E
:1003300000831183328323835483458306E010E0D6
:10034000089587C28DC2B1D040815181241B350BE5
:100350002017310710F001E0089500E00895EEEB5A
:10036000F1E000831183089581D0E0ECF1E0008199
:100370001181089581D4243040E0340770F0F801F1
:10038000E20FF31F329791818081225030406ADE64
:100390000817190711F401E001C000E0E2E072C49F
:1003A00069D4E7EBF1E0E3DFE0ECF1E0A081B181BB
:1003B000A00FB11F80E290E0801B910B0091BD0166
:1003C000E2E4F0E019C462D0E7EBF1E000E0008382
:1003D00001831BD20BE047C000916E02002359F04D
:1003E0004AD01CF059D00CE004C00F3F1F4F19F445
:1003F00001E10093BD0104E145D0D1F436C0009184
:100400006E02002351F037D014F046D006C00F3FE3
:100410001F4F19F401E10093BD0104E033D029F12D
:10042000A3DFA8DF002321F00DE01DC09DDF1CDF4E
:1004300001E119C02BD05B980FE015C005E022D078
:10044000A1F014D0E9EBF1E092DFA4DEEBD100E102
:100450000AC000916F02002341F0F4D15B9A0AE0D8
:1004600002C0D8D100E00093BD015FCFE7EBF1E01F
:100470002081318108959C018D0164DF013020E0ED
:100480001207089510E05FDF00230895E6EAF2E026
:100490000081118164DFB1C108D020833183E6DFA0
:1004A000200F311F208331830895E6EAF2E0208196
:1004B0003181EEEBF1E00895B3D201E00093D20177
:1004C0000895DAD300E00093EB0102E40093EC011D
:1004D00082E020E090E038D050E034E0022F122F8C
:1004E000110F110B000F111FE4E8F1E0E00FF11FF5
:1004F000008118E0019F03ED11E0000D111D018046
:10050000000D191FF801008110E00370452F45D33D
:10051000EBEEF1E0E80FF91F1081102B108323950B
:100520005E5F3A9519F028312CF4D8CF83950CD022
:10053000283184F29C01225030400DEE11E0AFDDF5
:1005400006D0008FE2E09EC302D0908F0895E3EDC5
:10055000F1E0E80FF91F0895F901E40FF51F01E933
:100560000CD0F901E40FF51F01E007D0240F351F6F
:10057000F90102E902D08A01089500834F5F5F4FBD
:1005800008957AD38901CA014AE050E02BEE31E0A8
:1005900082D38C01D7CFF8016081615919F0615B7A
:1005A00019F004C0D9DF01C0ECDFA801E4CF62D3A9
:1005B000A0EDB1E00091D2010A9529F00A9561F011
:1005C000085061F107C006D200E00D930C9302E0E1
:1005D0000093D201E4E054C300917C020023D1F3E4
:1005E00007D2013020E01207A4F02D913C91200F9A
:1005F000311F3C932E93A901E4E8F2E02081318180
:10060000E2E8F2E000811181C6DF012B29F009E068
:10061000DFCF0F3F1F4FF1F600E0DACF0091BB01B3
:10062000023010F001E001C003950093BB0140E1EE
:1006300050E020E030E0B6DDEFCF0091F8010A9500
:1006400019F00A5059F0089500E00093F7013BD0EB
:1006500057D045D00BE00093F801089500917A003F
:1006600004FF21C000917A00006100937A0053D00A
:1006700052D078DD2091F70130E0E3EDF1E0E20FB8
:10068000F31F008BE3EDF1E004A1039504A3083010
:1006900028F42BD00091F70116D021C02AD011DF09
:1006A00000E00093F801089510E008950FE300932F
:1006B0007E0007E000937A0000E000937B0000ECEE
:1006C00000937C00089510917C00107F10937C00B3
:1006D0000F7010917C00102B10937C0008950091F6
:1006E0007A00006C00937A00089500917A000F73ED
:1006F000F9CFFBDF0091640001600093640008956E
:10070000009164000E7F0093640000917A000068FD
:1007100000937A000895009178001091790008956F
:100720000FD048D144835583668377830C811D8124
:10073000008711870E811F8102871387EEE0A0C218
:1007400099D2EAE4F2E0089594D2842F452E962FB0
:10075000AAE4B2E04D815E81FD01408B518B4F8157
:100760005885448755874481F5813CD04681F7817F
:1007700039D04085F185E42F40E0408344E014D235
:10078000A801B90100E010E820E730E010D298019C
:1007900021503040FD010281F381E02F2083BCD045
:1007A00011973083042D075029F00A9531F41FD09A
:1007B000066002C01CD0046000838E3439F085349A
:1007C00016D011F4006201C000630083913041F043
:1007D000923031F4FD01A085B1850C9108600C9335
:1007E000E9E04DC2E42F40E04083FD010895FD01A2
:1007F0000085F185E02F00810895A3DF00E0028BE2
:10080000038B04A305A306A3089516D000680FD098
:1008100000691CC02FD2A0E5B2E07ED000810F7627
:10082000008315C009D0006602D008620FC00C9387
:10083000A681B7810C9108951DD2EAE4F2E0A4816B
:10084000B581F8CFF9DF0F7DF2DF07790C93E4E093
:1008500017C277DF048715872687378701E024CF03
:100860006FDF40E044A346A1442329F44289538921
:100870004217530718F00FEF1FEF1DC0452BC9F0AB
:10088000F89480E090E00AC0DF01A80FB91F5496E9
:100890002C91D801A80FB91F2C9301962289338976
:1008A0008217930788F3022F10E0128B138B789432
:1008B00002C000E010E0CBCFBA93AA93FA93EA9378
:1008C0003A932A931A930A933FB7AAE4B2E0FD0140
:1008D00002891389003420E0120718F001E006A312
:1008E0000FC01A9619D01B972081FD01E00FF11F50
:1008F000248BFD01028913890F5F1F4F028B138B1D
:1009000001E004A33FBF0991199129913991E9911F
:10091000F991A991B9911895ED91FC910895BA9327
:10092000AA93D5D0AAE4B2E0FD0106851785012B74
:1009300081F4169622D00F7D0083EEDF159700819B
:1009400000640083FD01A681B7810C9100640C93C3
:1009500012C01C9612D0E0DF1B970083FD010485B6
:1009600015850F5F1F4F0487158706851785015072
:10097000104006871787A4D0CCCFED91FC91139738
:100980003ACF0A9301E000936F0209911895E2E0D3
:1009900079C1402F412B19F020FB0EF4F6D00895B9
:1009A000E2E8F2E007D004B1026104B90CB50260DC
:1009B0000CBD089500831183228333830895299801
:1009C0000CB5006C0CBD00E00EBD0895299A0CB565
:1009D0000F73EECFE7E7F2E000E0008301830283CC
:1009E00003830583068307830087018704830895B3
:1009F00043D1E7E7F2E000E005830185002321F41D
:100A000080819181409718F00FEF1FEF08C000819F
:100A10001181012B11F0008101C000E010E0B7CF7F
:100A200026D0E89A08951A930A931FB701E04A99CD
:100A30000CC00093810200E000937E02C7DF17D054
:100A400001E000937F020AE00CC000937E02B7DF52
:100A500015D00091690002600093690001E00093E5
:100A6000F8010093D2011FBF09911991189506D082
:100A70000091690003600093690008950091690086
:100A80000C7FF9CF08E30093B3000091B00002603F
:100A90000093B0000091B10005600093B100009197
:100AA0007000026000937000089511D0E6EAF2E051
:100AB000008111810F5F1F4F0083118301D01895B2
:100AC0002FBF099119912991E991F9910895FA930C
:100AD000EA932A931A930A932FB70895D3CFFA93E0
:100AE000EA934A933A932A931A930A934FB7009141
:100AF0007B020EBD0EB52091770230917802E09115
:100B00008202F0918302E20FF31F008300917702CB
:100B100010917802E0918402F0918502E00FF11FBC
:100B2000018100937B02E0917702F0917802709747
:100B300040F4E7E7F2E000810F5F1F4F008311836D
:100B400003C001E00093800201E000937C024FBFEC
:100B500009911991299139914991E991F991189542
:100B6000402F412B19F020FB0EF40FD00895C7C081
:100B700003E80DBF01E00EBFC4E6D1E08AD0002338
:100B800009F0A3D0A0DA06D0F2CF202F212B09F054
:100B9000B7D00895ECCF000F111F4A95E2F70895E2
:100BA000000F111F221F331F4A95D2F7089500240A
:100BB00011241001E0E2001F111F221F331FEA95CC
:100BC00072F0001C111C221C331C0416150626068C
:100BD000370688F3041A150A260A370AECCFA00153
:100BE000B101009510952095309508954591159087
:100BF00011FA259035900895F9DF041B10E000C02C
:100C000020E030E000C0B8F010FC17C0459105901E
:100C1000E00FF11F0417100540E02407340758F4D3
:100C200036F404910024F101E01BF0090994E00F6F
:100C3000F11F25903590F101099411F4D6F7F1CF09
:100C400031960EF0319650E060E070E045914B3FF8
:100C500048F089F34F3F29F04E3F11F075916591AF
:100C600055914591041B150B260B370B39F318F3DF
:100C7000E7CF4A92BA93AA939A938A9308954C80A5
:100C8000BB81AA8199818881F0E0EC0FFD1FEF0103
:100C9000089501E00895EEDFD80106C0F9016191E1
:100CA0009F016D9341505040642F652BB9F7E4E0EC
:100CB000E7CF20E02D9301501040E1F708952591F2
:100CC0002D9301501040D9F7089588E590E0FC017C
:100CD00005911491FC013296A591B491FC013496D2
:100CE00025913491422F432B19F0F901E8DF01C01F
:100CF000E0DF069610E08436910748F30895FFCFB1
:100D0000B9DF202F212B09F464C002501040F801F4
:100D100040815181443020E0520708F45AC028EA4B
:100D200032E0D9011296ED91FC916E2F6F2B19F0E4
:100D30000E171F0738F4D8011296ED93FC93F901B2
:100D400024C0FB0148D019F060177107D0F3008070
:100D50001180BF01600D711D06171707D0F16017D4
:100D6000710739F48001040F151F008311838F016F
:100D70000EC031D031F00801040E151E601571054A
:100D800040F1D80112966D937C9302831383F8018E
:100D9000A281B3814A2F4B2BE1F040815181B801F0
:100DA000640F751F6A177B07A1F4F90120E0208307
:100DB0002183FD0120813181F80140815181420F61
:100DC000531F40835183FD0122813381F801228327
:100DD0003383E4E055CF62817381062E072A08959C
:100DE00000060007000000010002000300040005E7
:100DF00001060107010001010102010301040105CF
:100E000002060207020002010202020302040205B6
:000B700184
:00000001FF
