:1000000070C6D1C51895189518951895189526C6D7
:100010001895189518951895189518951895189578
:10002000189518955BC528C537C518951895189566
:100030001895189500000000000080052D01B401FE
:10004000000030008401E20E95D6F801C9012FEFBF
:100050003FEF01C00197082F092B91F00191202754
:1000600008E001C00A950023A9F3A9015695479518
:1000700020FB9A01BEF711E0212710EA3127F2CFC9
:10008000A901890110E0152BE2E07DC6A89508952D
:10009000789408950093ED0108950093B8010895B0
:1000A000FFD5F6DF00E00A9310E01A931A931A9333
:1000B0001A931A9306EC1A930A9302EC1A930A9372
:1000C00061EC70E040EC50E024EC30E005EC84D3CF
:1000D00008E010E01A930A931A930A9300E11A9326
:1000E0000A9308E01A930A930AE212E01A930A9319
:1000F0000AE112E01A930A930CED11E01A930A93A5
:1001000002E112E01A930A930AE512E01A930A93A5
:100110000AE312E01A930A9301E00A9338E02EE40E
:1001200040E855E260E070E0E8EDF2E00081118126
:10013000E1D001E027D037D102E0AFDF26EC32E09A
:1001400006EB12E0E4D45BD205D300E0A3DF96D245
:1001500094D1C6D29BDFFBCF23E0073130E01307F9
:1001600010F422E00DC00F38130710F421E008C08E
:10017000013A130730F00A3232E0130708F420E0A6
:10018000022F08950093B6010895F4D5C8010DD14A
:1001900098018C0120D1E2E0F6C5EAD5822FDA0180
:1001A0009D01106812D1A00FB11F8C930F5F1F4FDC
:1001B000E4E0E7C5DCD508011A0150E04424A0E0E2
:1001C000B0E08D819E8102C043941196A217B307BF
:1001D000D0F48001F80131960F01F101E00FF11F19
:1001E0000081002329F001E010E0442D8FD5502B31
:1001F00007E0401649F7FB01E80FF91F508301960D
:1002000050E04424E2CF442029F0680F791FFB011D
:10021000508301968C01E7E0B3C5A6D5F801C9016A
:1002200000811181728066242381622AB481A0E05A
:100230002581A22B2B2B21F0A13D27E0B20718F03E
:10024000AC0123E00CC0E1ECF1E022813381A30199
:100250004A0F5B1F2417350720F4AC0122E09DDF15
:100260001BC09C01B2D09801FC01E00FF11F43E0DC
:100270008D0151D5A8010A2F077009F043954083DD
:100280002F5F3F4F3A932A93BC01E1ECF1E04081AC
:1002900051819D0183018EDF98018901E8E06DC5E0
:1002A000F80100811181602F762F770F770B009076
:1002B000B60111246015710529F0002319F000E042
:1002C00010E00895123019F48F01A7DF03C0A901CF
:1002D00021E063DFE4EBF1E00083118308950091F6
:1002E0009F0208950091A0020895E6EDF2E00081DA
:1002F000118108953DD5EFECF1E00483158340832F
:10030000518362837383208736830C8107830D8139
:100310001E81ABEBB1E00D931C932F813885ADEBC3
:10032000B1E02D933C9349855A85AFEBB1E04D93F5
:100330005C934B855C85A1ECB1E04D935C934D855E
:100340005E85A5ECB1E04D935C934F855889A7EC91
:10035000B1E04D935C9349895A89A9ECB1E04D9382
:100360005C934B895C89A3ECB1E04D935C934D8920
:100370005E89ADECB1E04D935C934F89588DABEC49
:10038000B1E04D935C933A932A931A930A93678151
:1003900056814085008111812281338132D2E9E189
:1003A000F0C47FD2089586D20895E2D4D801C9015D
:1003B0004BDEFD01E80FF91F00830196A80FB91F5E
:1003C0001C9301968C01E4E0DCC4F90100831183E5
:1003D00002E010E008957DD2089584DF08957FDF64
:1003E00008959ED2089581DF80DFE9EBF1E020815E
:1003F0003181021B130B0430104010F001E008950E
:1004000000E0089572DFE9EBF1E020813181021B09
:10041000130B083920E0120710F001E0089500E006
:10042000089563DFE9EBF1E020813181021B130BBA
:100430000530104010F001E0089500E0089555DF08
:10044000E9EBF1E000831183089594D4243040E077
:10045000340780F0F801E20FF31F3297918180E0BA
:100460004081842B22503040EFDD0817190711F42A
:1004700001E001C000E0E2E086C40091B801025052
:1004800091F00A95C9F00A9509F444C00A9509F457
:100490007BC00A9509F489C00A9509F48AC00A95B7
:1004A00009F495C00895CBDF7CDFE4EBF1E000E0D8
:1004B0000083018303E065C092DF002331F120E275
:1004C00030E0E4EBF1E000811181201B310B408131
:1004D0005181EBEBF1E000811181040F151F81DFE9
:1004E000013020E012075CF0E4EBF1E02081318183
:1004F000200F311F20833183A2DF04E004C00F3FAF
:100500001F4F19F402E00093B8017CDF002309F0CB
:1005100061C0089564DF002329F120E230E0E4EBBC
:10052000F1E000811181201B310B40815181EBEB07
:10053000F1E000811181040F151F53DF013020E02D
:10054000120754F0E4EBF1E020813181200F311FDC
:100550002083318374DF06C00F3F1F4F19F402E080
:100560000093B80140DF0023C1F1E4EBF1E020810A
:100570003181EBEBF1E00081118167DF002351F164
:1005800005E00093B8010895E4EBF1E0408151816A
:10059000EDEBF1E020813181EBEBF1E000811181A5
:1005A0007FDE012BB9F006E0ECCFFBDE48DF07E091
:1005B000E8CF37DF002389F0E4EBF1E020813181DF
:1005C000EDEBF1E000811181E0DD08E0DACF05DF3D
:1005D000002319F002E00093B801089500917A0019
:1005E000102F14FF07C000917A00006100937A0079
:1005F00001E0089500E008950091AD020895C7D28A
:1006000001E00093DB010895E9EDF1E000E00083F3
:10061000018396D20895F0DF0895A0D20895F901DC
:10062000E40FF51F01E900834F5F5F4FF901E40F0D
:10063000F51F01E000834F5F5F4F240F351FF90165
:1006400002E900834F5F5F4F8A01089593D38901C8
:10065000CA014AE050E026E032E09ED38C01E2E09D
:1006600092C3F8016081615919F0615B19F004C00F
:10067000D6DF01C0EBDFA8018A01089579D3A9ED87
:10068000B1E00091DB01015019F00A9521F026C07C
:10069000BBDF02E021C0BFDF002301F1BEDF01307C
:1006A00020E01207ACF02D913C91200F311F3C93BC
:1006B0002E934D915C91E4EBF2E020813181E2EBED
:1006C000F2E000811181CDDF012B29F009E004C0A7
:1006D0000F3F1F4F19F400E00093DB01E4E051C32A
:1006E0000091ED01015019F0095059F0089500E012
:1006F0000093EC013CD05ED046D00AE00093ED01BF
:1007000008956CDF002329F160D026DD1091EC0103
:1007100022E0129FECEDF1E0E00DF11D102F1170C1
:100720001083102F11FB10E010F911830091EC01E0
:1007300003950093EC010091EC01083030F429D0CE
:100740000091EC0114D01FD0089529D000E000934F
:10075000ED0108950FE300937E0007E000937A0017
:1007600000E000937B0000EC00937C000895109162
:100770007C00107F10937C000F7010917C00102B78
:1007800010937C00089500917A00006C00937A0029
:10079000089500917A000F7300937A0008950091F4
:1007A0007A000F7300937A00009164000160009357
:1007B00064000895009164000E7F0093640000912E
:1007C0007A00006800937A0008950091780010E0A4
:1007D00030917900132B0895CBD2EBE7F2E0008340
:1007E00011832283338344835583668377830C810B
:1007F0001D81008711870E811F8102871387EEE01C
:10080000C0C2B5D2842F452E962FABE7B2E04D8102
:100810005E81FD01408B518B4F8158854487558700
:1008200044E080D2A801B90100E010E820E730E000
:100830007CD2980121503040FD0102811381F801E2
:100840002083ED91FC9111973083042D075049F0DE
:100850000A9571F4FD0100851185F801008106609B
:1008600006C0FD0100851185F80100810460008348
:100870008E3459F0FD01008511858534F801008121
:1008800011F4006201C000630083913041F09230A6
:1008900031F4FD01A085B1850C9108600C93E9E06D
:1008A0006FC2EBE7F2E000E0028B038B04A305A329
:1008B00006A308955DD2EBE7F2E0A481B5810C9127
:1008C00000680C93A681B7810C9100690C93E4E059
:1008D00058C24ED2ABE7B2E0FD01048715872687E8
:1008E00037871496ED91FC91159700810F7700835F
:1008F0001696ED91FC91179700810F760083149660
:10090000ED91FC911597008100660083FD01A681A1
:10091000B7810C9108620C9301E010E0E4E031C271
:1009200027D2C801ABE7B2E000E000939F0200913C
:10093000A102002331F4FD01028913890217130774
:1009400018F00FEF1FEF1EC0012BD1F0B7D100E060
:1009500010E009C0E00FF11F2489FC01E00FF11F36
:1009600020830F5F1F4FFD01228933890217130770
:1009700088F3822F00E0028B038B8ADB082F01C0F3
:1009800000E010E0E4E0FDC1F3D1ABE7B2E0FD012F
:1009900006851785012BA9F41696ED91FC91179702
:1009A00000810F7D00831496ED91FC9115970081D5
:1009B00000640083FD01A681B7810C9100640C9353
:1009C00017C01C96ED91FC911D9700811A96ED9130
:1009D000FC911B970083FD01048515850F5F1F4F58
:1009E00004871587068517850150104006871787ED
:1009F000E4E0C7C1BDD1ABE7B2E01696ED91FC9142
:100A000017970081077B008301E044DB1496ED918A
:100A1000FC911597008100680083FD01A681B781D4
:100A20000C9100690C9301E00093A002E4E0A9C1DD
:100A30009FD1ABE7B2E0FD0102891389003420E0C9
:100A4000120720F001E00093A10212C01A96ED9166
:100A5000FC911B972081EBE7F2E0E00FF11F248B64
:100A6000FD01028913890F5F1F4F028B138B01E079
:100A700000939F02E4E085C1FA93EA930A922A93D5
:100A80001A930A932FB780DF2FBF099119912991EB
:100A90000990E991F99118958A93FA93EA933A9219
:100AA0002A921A920A927A936A935A934A933A93A1
:100AB0002A931A930A938FB79DDF8FBF09911991DB
:100AC0002991399149915991699179910990199098
:100AD00029903990E991F99189911895FA93EA93BF
:100AE0000A923A932A931A930A933FB7A1DF3FBF22
:100AF00009911991299139910990E991F9911895E4
:100B0000402F412B19F020FB0EF4F8D00895E2EBB2
:100B1000F2E0008311832283338304B1026104B9BC
:100B20000CB502600CBD089529980CB5006C0CBD85
:100B300000E00EBD0895299A0CB50F730CBD089501
:100B4000E8EAF2E000E00083018302830383058387
:100B50000683078300870187048308950BD1E8EAA1
:100B6000F2E000E005830185002321F4808191817A
:100B7000409718F00FEF1FEF08C000811181012B83
:100B800011F0008101C000E010E0E2E0FCC0009143
:100B900069000C7F00936900009169000360009375
:100BA0006900E89A08958A93FA93EA933A922A920E
:100BB0001A920A927A936A935A934A933A932A938F
:100BC0001A930A938FB74A9914C001E00093DC028C
:100BD00069D0B1DF009169000C7F0093690000913A
:100BE000690003600093690065D000E076D073D09F
:100BF00011C05CD099DF009169000C7F00936900FF
:100C00000091690002600093690001E066D001E094
:100C100041DA5FD08FBF099119912991399149919A
:100C20005991699179910990199029903990E99198
:100C3000F9918991189508E30093B3000091B000F1
:100C400002600093B0000091B10005600093B10014
:100C50000091700002600093700008958A93FA93E7
:100C6000EA933A922A921A920A927A936A935A9340
:100C70004A933A932A931A930A938FB721D08FBF3E
:100C800009911991299139914991599169917991D4
:100C90000990199029903990E991F99189911895C5
:100CA000CADF089500E00093AF02089501E00093C9
:100CB000AF02089501E00093B0020895F8940895FA
:100CC000E6EDF2E0008111810F5F1F4F0083118379
:100CD00008955B9808955B9A08950093DB01089549
:100CE0008FC003E80DBF01E00EBFC4E6D1E052D0D3
:100CF000002309F06BD0D4D906D0F2CF202F212BBE
:100D000009F07FD00895ECCF000F111F4A95E2F74C
:100D10000895169507954A95E2F70895000F111F5B
:100D2000221F331F4A95D2F7089500241124100181
:100D3000E0E2001F111F221F331FEA9572F0001C12
:100D4000111C221C331C041615062606370688F3D0
:100D5000041A150A260A370AECCFA001B101009542
:100D600010952095309508957A926A925A924A92F7
:100D7000BA93AA939A938A9308957F806E805D8038
:100D80004C80BB81AA8199818881F0E0EC0FFD1F26
:100D9000EF01089501E00895EBDFD80106C0F901E5
:100DA00061919F016D9341505040642F652BB9F7BD
:100DB000E4E0E7CF20E02D9301501040E1F70895E3
:100DC00025912D9301501040D9F708958CE390E0C0
:100DD000FC0105911491FC013296A591B491FC019E
:100DE000349625913491422F432B19F0F901E8DF15
:100DF00001C0E0DF069610E08834910748F30895BB
:100E0000FFCFB6DF202F212B09F464C00250104021
:100E1000F80140815181443020E0520708F45AC063
:100E20002DED32E0D9011296ED91FC916E2F6F2BD2
:100E300019F00E171F0738F4D8011296ED93FC93A2
:100E4000F90124C0FB0148D019F060177107D0F3F5
:100E500000801180BF01600D711D06171707D0F1CA
:100E60006017710739F48001040F151F0083118387
:100E70008F010EC031D031F00801040E151E60152F
:100E8000710540F1D80112966D937C930283138310
:100E9000F801A281B3814A2F4B2BE1F040815181AF
:100EA000B801640F751F6A177B07A1F4F90120E0F0
:100EB00020832183FD0120813181F801408151810E
:100EC000420F531F40835183FD0122813381F8017A
:100ED00022833383E4E055CF62817381062E072A93
:100EE000089500060007000000010002000300044E
:100EF00000050106010701000101010201030104CF
:100F000001050206020702000201020202030204B6
:020F10000205D8
:000CE20111
:00000001FF
